{
  "contractName": "DigiToken",
  "abi": [
    {
      "inputs": [],
      "stateMutability": "nonpayable",
      "type": "constructor"
    },
    {
      "anonymous": false,
      "inputs": [
        {
          "indexed": true,
          "internalType": "address",
          "name": "owner",
          "type": "address"
        },
        {
          "indexed": true,
          "internalType": "address",
          "name": "spender",
          "type": "address"
        },
        {
          "indexed": false,
          "internalType": "uint256",
          "name": "value",
          "type": "uint256"
        }
      ],
      "name": "Approval",
      "type": "event"
    },
    {
      "anonymous": false,
      "inputs": [
        {
          "indexed": true,
          "internalType": "address",
          "name": "delegator",
          "type": "address"
        },
        {
          "indexed": true,
          "internalType": "address",
          "name": "fromDelegate",
          "type": "address"
        },
        {
          "indexed": true,
          "internalType": "address",
          "name": "toDelegate",
          "type": "address"
        }
      ],
      "name": "DelegateChanged",
      "type": "event"
    },
    {
      "anonymous": false,
      "inputs": [
        {
          "indexed": true,
          "internalType": "address",
          "name": "delegate",
          "type": "address"
        },
        {
          "indexed": false,
          "internalType": "uint256",
          "name": "previousBalance",
          "type": "uint256"
        },
        {
          "indexed": false,
          "internalType": "uint256",
          "name": "newBalance",
          "type": "uint256"
        }
      ],
      "name": "DelegateVotesChanged",
      "type": "event"
    },
    {
      "anonymous": false,
      "inputs": [
        {
          "indexed": true,
          "internalType": "address",
          "name": "from",
          "type": "address"
        },
        {
          "indexed": true,
          "internalType": "address",
          "name": "to",
          "type": "address"
        }
      ],
      "name": "MinterChanged",
      "type": "event"
    },
    {
      "anonymous": false,
      "inputs": [
        {
          "indexed": true,
          "internalType": "address",
          "name": "previousOwner",
          "type": "address"
        },
        {
          "indexed": true,
          "internalType": "address",
          "name": "newOwner",
          "type": "address"
        }
      ],
      "name": "OwnershipTransferred",
      "type": "event"
    },
    {
      "anonymous": false,
      "inputs": [
        {
          "indexed": true,
          "internalType": "address",
          "name": "_from",
          "type": "address"
        },
        {
          "indexed": false,
          "internalType": "uint256",
          "name": "_amount",
          "type": "uint256"
        }
      ],
      "name": "TokenMinted",
      "type": "event"
    },
    {
      "anonymous": false,
      "inputs": [
        {
          "indexed": true,
          "internalType": "address",
          "name": "from",
          "type": "address"
        },
        {
          "indexed": true,
          "internalType": "address",
          "name": "to",
          "type": "address"
        },
        {
          "indexed": false,
          "internalType": "uint256",
          "name": "value",
          "type": "uint256"
        }
      ],
      "name": "Transfer",
      "type": "event"
    },
    {
      "inputs": [],
      "name": "DOMAIN_SEPARATOR",
      "outputs": [
        {
          "internalType": "bytes32",
          "name": "",
          "type": "bytes32"
        }
      ],
      "stateMutability": "view",
      "type": "function",
      "constant": true
    },
    {
      "inputs": [
        {
          "internalType": "address",
          "name": "owner",
          "type": "address"
        },
        {
          "internalType": "address",
          "name": "spender",
          "type": "address"
        }
      ],
      "name": "allowance",
      "outputs": [
        {
          "internalType": "uint256",
          "name": "",
          "type": "uint256"
        }
      ],
      "stateMutability": "view",
      "type": "function",
      "constant": true
    },
    {
      "inputs": [
        {
          "internalType": "address",
          "name": "spender",
          "type": "address"
        },
        {
          "internalType": "uint256",
          "name": "amount",
          "type": "uint256"
        }
      ],
      "name": "approve",
      "outputs": [
        {
          "internalType": "bool",
          "name": "",
          "type": "bool"
        }
      ],
      "stateMutability": "nonpayable",
      "type": "function"
    },
    {
      "inputs": [
        {
          "internalType": "address",
          "name": "account",
          "type": "address"
        }
      ],
      "name": "balanceOf",
      "outputs": [
        {
          "internalType": "uint256",
          "name": "",
          "type": "uint256"
        }
      ],
      "stateMutability": "view",
      "type": "function",
      "constant": true
    },
    {
      "inputs": [
        {
          "internalType": "address",
          "name": "account",
          "type": "address"
        },
        {
          "internalType": "uint32",
          "name": "pos",
          "type": "uint32"
        }
      ],
      "name": "checkpoints",
      "outputs": [
        {
          "components": [
            {
              "internalType": "uint32",
              "name": "fromBlock",
              "type": "uint32"
            },
            {
              "internalType": "uint224",
              "name": "votes",
              "type": "uint224"
            }
          ],
          "internalType": "struct ERC20Votes.Checkpoint",
          "name": "",
          "type": "tuple"
        }
      ],
      "stateMutability": "view",
      "type": "function",
      "constant": true
    },
    {
      "inputs": [],
      "name": "decimals",
      "outputs": [
        {
          "internalType": "uint8",
          "name": "",
          "type": "uint8"
        }
      ],
      "stateMutability": "view",
      "type": "function",
      "constant": true
    },
    {
      "inputs": [
        {
          "internalType": "address",
          "name": "spender",
          "type": "address"
        },
        {
          "internalType": "uint256",
          "name": "subtractedValue",
          "type": "uint256"
        }
      ],
      "name": "decreaseAllowance",
      "outputs": [
        {
          "internalType": "bool",
          "name": "",
          "type": "bool"
        }
      ],
      "stateMutability": "nonpayable",
      "type": "function"
    },
    {
      "inputs": [
        {
          "internalType": "address",
          "name": "delegatee",
          "type": "address"
        }
      ],
      "name": "delegate",
      "outputs": [],
      "stateMutability": "nonpayable",
      "type": "function"
    },
    {
      "inputs": [
        {
          "internalType": "address",
          "name": "delegatee",
          "type": "address"
        },
        {
          "internalType": "uint256",
          "name": "nonce",
          "type": "uint256"
        },
        {
          "internalType": "uint256",
          "name": "expiry",
          "type": "uint256"
        },
        {
          "internalType": "uint8",
          "name": "v",
          "type": "uint8"
        },
        {
          "internalType": "bytes32",
          "name": "r",
          "type": "bytes32"
        },
        {
          "internalType": "bytes32",
          "name": "s",
          "type": "bytes32"
        }
      ],
      "name": "delegateBySig",
      "outputs": [],
      "stateMutability": "nonpayable",
      "type": "function"
    },
    {
      "inputs": [
        {
          "internalType": "address",
          "name": "account",
          "type": "address"
        }
      ],
      "name": "delegates",
      "outputs": [
        {
          "internalType": "address",
          "name": "",
          "type": "address"
        }
      ],
      "stateMutability": "view",
      "type": "function",
      "constant": true
    },
    {
      "inputs": [
        {
          "internalType": "uint256",
          "name": "blockNumber",
          "type": "uint256"
        }
      ],
      "name": "getPastTotalSupply",
      "outputs": [
        {
          "internalType": "uint256",
          "name": "",
          "type": "uint256"
        }
      ],
      "stateMutability": "view",
      "type": "function",
      "constant": true
    },
    {
      "inputs": [
        {
          "internalType": "address",
          "name": "account",
          "type": "address"
        },
        {
          "internalType": "uint256",
          "name": "blockNumber",
          "type": "uint256"
        }
      ],
      "name": "getPastVotes",
      "outputs": [
        {
          "internalType": "uint256",
          "name": "",
          "type": "uint256"
        }
      ],
      "stateMutability": "view",
      "type": "function",
      "constant": true
    },
    {
      "inputs": [
        {
          "internalType": "address",
          "name": "account",
          "type": "address"
        }
      ],
      "name": "getVotes",
      "outputs": [
        {
          "internalType": "uint256",
          "name": "",
          "type": "uint256"
        }
      ],
      "stateMutability": "view",
      "type": "function",
      "constant": true
    },
    {
      "inputs": [
        {
          "internalType": "address",
          "name": "spender",
          "type": "address"
        },
        {
          "internalType": "uint256",
          "name": "addedValue",
          "type": "uint256"
        }
      ],
      "name": "increaseAllowance",
      "outputs": [
        {
          "internalType": "bool",
          "name": "",
          "type": "bool"
        }
      ],
      "stateMutability": "nonpayable",
      "type": "function"
    },
    {
      "inputs": [],
      "name": "minter",
      "outputs": [
        {
          "internalType": "address",
          "name": "",
          "type": "address"
        }
      ],
      "stateMutability": "view",
      "type": "function",
      "constant": true
    },
    {
      "inputs": [],
      "name": "name",
      "outputs": [
        {
          "internalType": "string",
          "name": "",
          "type": "string"
        }
      ],
      "stateMutability": "view",
      "type": "function",
      "constant": true
    },
    {
      "inputs": [
        {
          "internalType": "address",
          "name": "owner",
          "type": "address"
        }
      ],
      "name": "nonces",
      "outputs": [
        {
          "internalType": "uint256",
          "name": "",
          "type": "uint256"
        }
      ],
      "stateMutability": "view",
      "type": "function",
      "constant": true
    },
    {
      "inputs": [
        {
          "internalType": "address",
          "name": "account",
          "type": "address"
        }
      ],
      "name": "numCheckpoints",
      "outputs": [
        {
          "internalType": "uint32",
          "name": "",
          "type": "uint32"
        }
      ],
      "stateMutability": "view",
      "type": "function",
      "constant": true
    },
    {
      "inputs": [],
      "name": "owner",
      "outputs": [
        {
          "internalType": "address",
          "name": "",
          "type": "address"
        }
      ],
      "stateMutability": "view",
      "type": "function",
      "constant": true
    },
    {
      "inputs": [
        {
          "internalType": "address",
          "name": "owner",
          "type": "address"
        },
        {
          "internalType": "address",
          "name": "spender",
          "type": "address"
        },
        {
          "internalType": "uint256",
          "name": "value",
          "type": "uint256"
        },
        {
          "internalType": "uint256",
          "name": "deadline",
          "type": "uint256"
        },
        {
          "internalType": "uint8",
          "name": "v",
          "type": "uint8"
        },
        {
          "internalType": "bytes32",
          "name": "r",
          "type": "bytes32"
        },
        {
          "internalType": "bytes32",
          "name": "s",
          "type": "bytes32"
        }
      ],
      "name": "permit",
      "outputs": [],
      "stateMutability": "nonpayable",
      "type": "function"
    },
    {
      "inputs": [],
      "name": "renounceOwnership",
      "outputs": [],
      "stateMutability": "nonpayable",
      "type": "function"
    },
    {
      "inputs": [],
      "name": "symbol",
      "outputs": [
        {
          "internalType": "string",
          "name": "",
          "type": "string"
        }
      ],
      "stateMutability": "view",
      "type": "function",
      "constant": true
    },
    {
      "inputs": [],
      "name": "totalSupply",
      "outputs": [
        {
          "internalType": "uint256",
          "name": "",
          "type": "uint256"
        }
      ],
      "stateMutability": "view",
      "type": "function",
      "constant": true
    },
    {
      "inputs": [
        {
          "internalType": "address",
          "name": "to",
          "type": "address"
        },
        {
          "internalType": "uint256",
          "name": "amount",
          "type": "uint256"
        }
      ],
      "name": "transfer",
      "outputs": [
        {
          "internalType": "bool",
          "name": "",
          "type": "bool"
        }
      ],
      "stateMutability": "nonpayable",
      "type": "function"
    },
    {
      "inputs": [
        {
          "internalType": "address",
          "name": "from",
          "type": "address"
        },
        {
          "internalType": "address",
          "name": "to",
          "type": "address"
        },
        {
          "internalType": "uint256",
          "name": "amount",
          "type": "uint256"
        }
      ],
      "name": "transferFrom",
      "outputs": [
        {
          "internalType": "bool",
          "name": "",
          "type": "bool"
        }
      ],
      "stateMutability": "nonpayable",
      "type": "function"
    },
    {
      "inputs": [
        {
          "internalType": "address",
          "name": "newOwner",
          "type": "address"
        }
      ],
      "name": "transferOwnership",
      "outputs": [],
      "stateMutability": "nonpayable",
      "type": "function"
    },
    {
      "inputs": [
        {
          "internalType": "address",
          "name": "digiBank",
          "type": "address"
        }
      ],
      "name": "PassMinterRole",
      "outputs": [
        {
          "internalType": "bool",
          "name": "",
          "type": "bool"
        }
      ],
      "stateMutability": "nonpayable",
      "type": "function"
    },
    {
      "inputs": [
        {
          "internalType": "address",
          "name": "account",
          "type": "address"
        },
        {
          "internalType": "uint256",
          "name": "amount",
          "type": "uint256"
        }
      ],
      "name": "MintTokens",
      "outputs": [],
      "stateMutability": "nonpayable",
      "type": "function"
    }
  ],
  "bytecode": "0x6101406040523480156200001257600080fd5b506040518060400160405280600c81526020017f4469676974616c546f6b656e0000000000000000000000000000000000000000815250806040518060400160405280600181526020017f31000000000000000000000000000000000000000000000000000000000000008152506040518060400160405280600c81526020017f4469676974616c546f6b656e00000000000000000000000000000000000000008152506040518060400160405280600381526020017f444754000000000000000000000000000000000000000000000000000000000081525081600390805190602001906200010492919062000cb6565b5080600490805190602001906200011d92919062000cb6565b50505060008280519060200120905060008280519060200120905060007f8b73c3c69bb8fe3d512ecc4cf759cc79239f7b179b0ffacaa9a75d522b39400f90508260e081815250508161010081815250504660a08181525050620001898184846200027c60201b60201c565b608081815250503073ffffffffffffffffffffffffffffffffffffffff1660c08173ffffffffffffffffffffffffffffffffffffffff1681525050806101208181525050505050505050620001f3620001e7620002b860201b60201c565b620002c060201b60201c565b33600b60006101000a81548173ffffffffffffffffffffffffffffffffffffffff021916908373ffffffffffffffffffffffffffffffffffffffff1602179055506200027633620002496200038660201b60201c565b60ff16600a6200025a919062000ef3565b620f42406200026a919062000f44565b6200038f60201b60201c565b62001433565b600083838346306040516020016200029995949392919062001016565b6040516020818303038152906040528051906020012090509392505050565b600033905090565b6000600a60009054906101000a900473ffffffffffffffffffffffffffffffffffffffff16905081600a60006101000a81548173ffffffffffffffffffffffffffffffffffffffff021916908373ffffffffffffffffffffffffffffffffffffffff1602179055508173ffffffffffffffffffffffffffffffffffffffff168173ffffffffffffffffffffffffffffffffffffffff167f8be0079c531659141344cd1fd0a4f28419497f9722a3daafe3b4186f6b6457e060405160405180910390a35050565b60006012905090565b620003a68282620003aa60201b6200139c1760201c565b5050565b620003c182826200046860201b620014291760201c565b620003d1620005e060201b60201c565b7bffffffffffffffffffffffffffffffffffffffffffffffffffffffff16620003ff6200060460201b60201c565b111562000443576040517f08c379a00000000000000000000000000000000000000000000000000000000081526004016200043a90620010fa565b60405180910390fd5b6200046260096200060e60201b6200158817836200062660201b60201c565b50505050565b600073ffffffffffffffffffffffffffffffffffffffff168273ffffffffffffffffffffffffffffffffffffffff1603620004da576040517f08c379a0000000000000000000000000000000000000000000000000000000008152600401620004d1906200116c565b60405180910390fd5b620004ee60008383620008d760201b60201c565b80600260008282546200050291906200118e565b92505081905550806000808473ffffffffffffffffffffffffffffffffffffffff1673ffffffffffffffffffffffffffffffffffffffff16815260200190815260200160002060008282546200055991906200118e565b925050819055508173ffffffffffffffffffffffffffffffffffffffff16600073ffffffffffffffffffffffffffffffffffffffff167fddf252ad1be2c89b69c2b068fc378daa952ba7f163c4a11628f55a4df523b3ef83604051620005c09190620011eb565b60405180910390a3620005dc60008383620008dc60201b60201c565b5050565b60007bffffffffffffffffffffffffffffffffffffffffffffffffffffffff905090565b6000600254905090565b600081836200061e91906200118e565b905092915050565b600080600085805490509050600081146200069b57856001826200064b919062001208565b815481106200065f576200065e62001243565b5b9060005260206000200160000160049054906101000a90047bffffffffffffffffffffffffffffffffffffffffffffffffffffffff166200069e565b60005b7bffffffffffffffffffffffffffffffffffffffffffffffffffffffff169250620006ca83858760201c565b91506000811180156200072357504386600183620006e9919062001208565b81548110620006fd57620006fc62001243565b5b9060005260206000200160000160009054906101000a900463ffffffff1663ffffffff16145b15620007c4576200073f82620008f960201b6200159e1760201c565b866001836200074f919062001208565b8154811062000763576200076262001243565b5b9060005260206000200160000160046101000a8154817bffffffffffffffffffffffffffffffffffffffffffffffffffffffff02191690837bffffffffffffffffffffffffffffffffffffffffffffffffffffffff160217905550620008ce565b856040518060400160405280620007e6436200096760201b620016091760201c565b63ffffffff1681526020016200080785620008f960201b6200159e1760201c565b7bffffffffffffffffffffffffffffffffffffffffffffffffffffffff168152509080600181540180825580915050600190039060005260206000200160009091909190915060008201518160000160006101000a81548163ffffffff021916908363ffffffff16021790555060208201518160000160046101000a8154817bffffffffffffffffffffffffffffffffffffffffffffffffffffffff02191690837bffffffffffffffffffffffffffffffffffffffffffffffffffffffff16021790555050505b50935093915050565b505050565b620008f4838383620009bd60201b6200165c1760201c565b505050565b60007bffffffffffffffffffffffffffffffffffffffffffffffffffffffff80168211156200095f576040517f08c379a00000000000000000000000000000000000000000000000000000000081526004016200095690620012e8565b60405180910390fd5b819050919050565b600063ffffffff8016821115620009b5576040517f08c379a0000000000000000000000000000000000000000000000000000000008152600401620009ac9062001380565b60405180910390fd5b819050919050565b620009d583838362000a0d60201b620016871760201c565b62000a08620009ea8462000a1260201b60201c565b620009fb8462000a1260201b60201c565b8362000a7b60201b60201c565b505050565b505050565b6000600760008373ffffffffffffffffffffffffffffffffffffffff1673ffffffffffffffffffffffffffffffffffffffff16815260200190815260200160002060009054906101000a900473ffffffffffffffffffffffffffffffffffffffff169050919050565b8173ffffffffffffffffffffffffffffffffffffffff168373ffffffffffffffffffffffffffffffffffffffff161415801562000ab85750600081115b1562000c9957600073ffffffffffffffffffffffffffffffffffffffff168373ffffffffffffffffffffffffffffffffffffffff161462000bab5760008062000b52600860008773ffffffffffffffffffffffffffffffffffffffff1673ffffffffffffffffffffffffffffffffffffffff16815260200190815260200160002062000c9e60201b6200168c17856200062660201b60201c565b915091508473ffffffffffffffffffffffffffffffffffffffff167fdec2bacdd2f05b59de34da9b523dff8be42e5e38e818c82fdb0bae774387a724838360405162000ba0929190620013a2565b60405180910390a250505b600073ffffffffffffffffffffffffffffffffffffffff168273ffffffffffffffffffffffffffffffffffffffff161462000c985760008062000c3f600860008673ffffffffffffffffffffffffffffffffffffffff1673ffffffffffffffffffffffffffffffffffffffff1681526020019081526020016000206200060e60201b6200158817856200062660201b60201c565b915091508373ffffffffffffffffffffffffffffffffffffffff167fdec2bacdd2f05b59de34da9b523dff8be42e5e38e818c82fdb0bae774387a724838360405162000c8d929190620013a2565b60405180910390a250505b5b505050565b6000818362000cae919062001208565b905092915050565b82805462000cc490620013fe565b90600052602060002090601f01602090048101928262000ce8576000855562000d34565b82601f1062000d0357805160ff191683800117855562000d34565b8280016001018555821562000d34579182015b8281111562000d3357825182559160200191906001019062000d16565b5b50905062000d43919062000d47565b5090565b5b8082111562000d6257600081600090555060010162000d48565b5090565b7f4e487b7100000000000000000000000000000000000000000000000000000000600052601160045260246000fd5b60008160011c9050919050565b6000808291508390505b600185111562000df45780860481111562000dcc5762000dcb62000d66565b5b600185161562000ddc5780820291505b808102905062000dec8562000d95565b945062000dac565b94509492505050565b60008262000e0f576001905062000ee2565b8162000e1f576000905062000ee2565b816001811462000e38576002811462000e435762000e79565b600191505062000ee2565b60ff84111562000e585762000e5762000d66565b5b8360020a91508482111562000e725762000e7162000d66565b5b5062000ee2565b5060208310610133831016604e8410600b841016171562000eb35782820a90508381111562000ead5762000eac62000d66565b5b62000ee2565b62000ec2848484600162000da2565b9250905081840481111562000edc5762000edb62000d66565b5b81810290505b9392505050565b6000819050919050565b600062000f008262000ee9565b915062000f0d8362000ee9565b925062000f3c7fffffffffffffffffffffffffffffffffffffffffffffffffffffffffffffffff848462000dfd565b905092915050565b600062000f518262000ee9565b915062000f5e8362000ee9565b9250817fffffffffffffffffffffffffffffffffffffffffffffffffffffffffffffffff048311821515161562000f9a5762000f9962000d66565b5b828202905092915050565b6000819050919050565b62000fba8162000fa5565b82525050565b62000fcb8162000ee9565b82525050565b600073ffffffffffffffffffffffffffffffffffffffff82169050919050565b600062000ffe8262000fd1565b9050919050565b620010108162000ff1565b82525050565b600060a0820190506200102d600083018862000faf565b6200103c602083018762000faf565b6200104b604083018662000faf565b6200105a606083018562000fc0565b62001069608083018462001005565b9695505050505050565b600082825260208201905092915050565b7f4552433230566f7465733a20746f74616c20737570706c79207269736b73206f60008201527f766572666c6f77696e6720766f74657300000000000000000000000000000000602082015250565b6000620010e260308362001073565b9150620010ef8262001084565b604082019050919050565b600060208201905081810360008301526200111581620010d3565b9050919050565b7f45524332303a206d696e7420746f20746865207a65726f206164647265737300600082015250565b600062001154601f8362001073565b915062001161826200111c565b602082019050919050565b60006020820190508181036000830152620011878162001145565b9050919050565b60006200119b8262000ee9565b9150620011a88362000ee9565b9250827fffffffffffffffffffffffffffffffffffffffffffffffffffffffffffffffff03821115620011e057620011df62000d66565b5b828201905092915050565b600060208201905062001202600083018462000fc0565b92915050565b6000620012158262000ee9565b9150620012228362000ee9565b92508282101562001238576200123762000d66565b5b828203905092915050565b7f4e487b7100000000000000000000000000000000000000000000000000000000600052603260045260246000fd5b7f53616665436173743a2076616c756520646f65736e27742066697420696e203260008201527f3234206269747300000000000000000000000000000000000000000000000000602082015250565b6000620012d060278362001073565b9150620012dd8262001272565b604082019050919050565b600060208201905081810360008301526200130381620012c1565b9050919050565b7f53616665436173743a2076616c756520646f65736e27742066697420696e203360008201527f3220626974730000000000000000000000000000000000000000000000000000602082015250565b60006200136860268362001073565b915062001375826200130a565b604082019050919050565b600060208201905081810360008301526200139b8162001359565b9050919050565b6000604082019050620013b9600083018562000fc0565b620013c8602083018462000fc0565b9392505050565b7f4e487b7100000000000000000000000000000000000000000000000000000000600052602260045260246000fd5b600060028204905060018216806200141757607f821691505b6020821081036200142d576200142c620013cf565b5b50919050565b60805160a05160c05160e0516101005161012051613f36620014836000396000611c2c01526000611c6e01526000611c4d01526000611b8201526000611bd801526000611c010152613f366000f3fe608060405234801561001057600080fd5b50600436106101c45760003560e01c8063715018a6116100f9578063a457c2d711610097578063d505accf11610071578063d505accf14610569578063dd62ed3e14610585578063f1127ed8146105b5578063f2fde38b146105e5576101c4565b8063a457c2d7146104ed578063a9059cbb1461051d578063c3cda5201461054d576101c4565b80638da5cb5b116100d35780638da5cb5b146104515780638e539e8c1461046f57806395d89b411461049f5780639ab24eb0146104bd576101c4565b8063715018a6146103fb5780637b47457f146104055780637ecebe0014610421576101c4565b80633950935111610166578063587cde1e11610140578063587cde1e1461034f5780635c19a95c1461037f5780636fcfff451461039b57806370a08231146103cb576101c4565b806339509351146102bf5780633a46b1a8146102ef5780633e2158361461031f576101c4565b806318160ddd116101a257806318160ddd1461023557806323b872dd14610253578063313ce567146102835780633644e515146102a1576101c4565b806306fdde03146101c957806307546172146101e7578063095ea7b314610205575b600080fd5b6101d1610601565b6040516101de9190612945565b60405180910390f35b6101ef610693565b6040516101fc91906129a8565b60405180910390f35b61021f600480360381019061021a9190612a2a565b6106b9565b60405161022c9190612a85565b60405180910390f35b61023d6106dc565b60405161024a9190612aaf565b60405180910390f35b61026d60048036038101906102689190612aca565b6106e6565b60405161027a9190612a85565b60405180910390f35b61028b610715565b6040516102989190612b39565b60405180910390f35b6102a961071e565b6040516102b69190612b6d565b60405180910390f35b6102d960048036038101906102d49190612a2a565b61072d565b6040516102e69190612a85565b60405180910390f35b61030960048036038101906103049190612a2a565b610764565b6040516103169190612aaf565b60405180910390f35b61033960048036038101906103349190612b88565b6107f8565b6040516103469190612a85565b60405180910390f35b61036960048036038101906103649190612b88565b61092e565b60405161037691906129a8565b60405180910390f35b61039960048036038101906103949190612b88565b610997565b005b6103b560048036038101906103b09190612b88565b6109ab565b6040516103c29190612bd4565b60405180910390f35b6103e560048036038101906103e09190612b88565b6109ff565b6040516103f29190612aaf565b60405180910390f35b610403610a47565b005b61041f600480360381019061041a9190612a2a565b610acf565b005b61043b60048036038101906104369190612b88565b610bbb565b6040516104489190612aaf565b60405180910390f35b610459610c0b565b60405161046691906129a8565b60405180910390f35b61048960048036038101906104849190612bef565b610c35565b6040516104969190612aaf565b60405180910390f35b6104a7610c8b565b6040516104b49190612945565b60405180910390f35b6104d760048036038101906104d29190612b88565b610d1d565b6040516104e49190612aaf565b60405180910390f35b61050760048036038101906105029190612a2a565b610e2e565b6040516105149190612a85565b60405180910390f35b61053760048036038101906105329190612a2a565b610ea5565b6040516105449190612a85565b60405180910390f35b61056760048036038101906105629190612c74565b610ec8565b005b610583600480360381019061057e9190612d01565b610fcc565b005b61059f600480360381019061059a9190612da3565b61110e565b6040516105ac9190612aaf565b60405180910390f35b6105cf60048036038101906105ca9190612e0f565b611195565b6040516105dc9190612ec4565b60405180910390f35b6105ff60048036038101906105fa9190612b88565b6112a5565b005b60606003805461061090612f0e565b80601f016020809104026020016040519081016040528092919081815260200182805461063c90612f0e565b80156106895780601f1061065e57610100808354040283529160200191610689565b820191906000526020600020905b81548152906001019060200180831161066c57829003601f168201915b5050505050905090565b600b60009054906101000a900473ffffffffffffffffffffffffffffffffffffffff1681565b6000806106c46116a2565b90506106d18185856116aa565b600191505092915050565b6000600254905090565b6000806106f16116a2565b90506106fe858285611873565b6107098585856118ff565b60019150509392505050565b60006012905090565b6000610728611b7e565b905090565b6000806107386116a2565b905061075981858561074a858961110e565b6107549190612f6e565b6116aa565b600191505092915050565b60004382106107a8576040517f08c379a000000000000000000000000000000000000000000000000000000000815260040161079f90613010565b60405180910390fd5b6107f0600860008573ffffffffffffffffffffffffffffffffffffffff1673ffffffffffffffffffffffffffffffffffffffff16815260200190815260200160002083611c98565b905092915050565b6000600b60009054906101000a900473ffffffffffffffffffffffffffffffffffffffff1673ffffffffffffffffffffffffffffffffffffffff163373ffffffffffffffffffffffffffffffffffffffff161461088a576040517f08c379a0000000000000000000000000000000000000000000000000000000008152600401610881906130a2565b60405180910390fd5b81600b60006101000a81548173ffffffffffffffffffffffffffffffffffffffff021916908373ffffffffffffffffffffffffffffffffffffffff1602179055508173ffffffffffffffffffffffffffffffffffffffff163373ffffffffffffffffffffffffffffffffffffffff167f3b0007eb941cf645526cbb3a4fdaecda9d28ce4843167d9263b536a1f1edc0f660405160405180910390a360019050919050565b6000600760008373ffffffffffffffffffffffffffffffffffffffff1673ffffffffffffffffffffffffffffffffffffffff16815260200190815260200160002060009054906101000a900473ffffffffffffffffffffffffffffffffffffffff169050919050565b6109a86109a26116a2565b82611da4565b50565b60006109f8600860008473ffffffffffffffffffffffffffffffffffffffff1673ffffffffffffffffffffffffffffffffffffffff16815260200190815260200160002080549050611609565b9050919050565b60008060008373ffffffffffffffffffffffffffffffffffffffff1673ffffffffffffffffffffffffffffffffffffffff168152602001908152602001600020549050919050565b610a4f6116a2565b73ffffffffffffffffffffffffffffffffffffffff16610a6d610c0b565b73ffffffffffffffffffffffffffffffffffffffff1614610ac3576040517f08c379a0000000000000000000000000000000000000000000000000000000008152600401610aba9061310e565b60405180910390fd5b610acd6000611ebe565b565b600b60009054906101000a900473ffffffffffffffffffffffffffffffffffffffff1673ffffffffffffffffffffffffffffffffffffffff163373ffffffffffffffffffffffffffffffffffffffff1614610b5f576040517f08c379a0000000000000000000000000000000000000000000000000000000008152600401610b56906131a0565b60405180910390fd5b610b698282611f84565b3373ffffffffffffffffffffffffffffffffffffffff167fb9144c96c86541f6fa89c9f2f02495cccf4b08cd6643e26d34ee00aa586558a882604051610baf9190612aaf565b60405180910390a25050565b6000610c04600560008473ffffffffffffffffffffffffffffffffffffffff1673ffffffffffffffffffffffffffffffffffffffff168152602001908152602001600020611f92565b9050919050565b6000600a60009054906101000a900473ffffffffffffffffffffffffffffffffffffffff16905090565b6000438210610c79576040517f08c379a0000000000000000000000000000000000000000000000000000000008152600401610c7090613010565b60405180910390fd5b610c84600983611c98565b9050919050565b606060048054610c9a90612f0e565b80601f0160208091040260200160405190810160405280929190818152602001828054610cc690612f0e565b8015610d135780601f10610ce857610100808354040283529160200191610d13565b820191906000526020600020905b815481529060010190602001808311610cf657829003601f168201915b5050505050905090565b600080600860008473ffffffffffffffffffffffffffffffffffffffff1673ffffffffffffffffffffffffffffffffffffffff16815260200190815260200160002080549050905060008114610e0557600860008473ffffffffffffffffffffffffffffffffffffffff1673ffffffffffffffffffffffffffffffffffffffff168152602001908152602001600020600182610db991906131c0565b81548110610dca57610dc96131f4565b5b9060005260206000200160000160049054906101000a90047bffffffffffffffffffffffffffffffffffffffffffffffffffffffff16610e08565b60005b7bffffffffffffffffffffffffffffffffffffffffffffffffffffffff16915050919050565b600080610e396116a2565b90506000610e47828661110e565b905083811015610e8c576040517f08c379a0000000000000000000000000000000000000000000000000000000008152600401610e8390613295565b60405180910390fd5b610e9982868684036116aa565b60019250505092915050565b600080610eb06116a2565b9050610ebd8185856118ff565b600191505092915050565b83421115610f0b576040517f08c379a0000000000000000000000000000000000000000000000000000000008152600401610f0290613301565b60405180910390fd5b6000610f6d610f657fe48329057bfd03d55e49b547132e39cffd9c1820ad7b9d4c5307691425d15adf898989604051602001610f4a9493929190613321565b60405160208183030381529060405280519060200120611fa0565b858585611fba565b9050610f7881611fe5565b8614610fb9576040517f08c379a0000000000000000000000000000000000000000000000000000000008152600401610fb0906133b2565b60405180910390fd5b610fc38188611da4565b50505050505050565b8342111561100f576040517f08c379a00000000000000000000000000000000000000000000000000000000081526004016110069061341e565b60405180910390fd5b60007f6e71edae12b1b97f4d1f60370fef10105fa2faae0126114a169c64845d6126c988888861103e8c611fe5565b896040516020016110549695949392919061343e565b604051602081830303815290604052805190602001209050600061107782611fa0565b9050600061108782878787611fba565b90508973ffffffffffffffffffffffffffffffffffffffff168173ffffffffffffffffffffffffffffffffffffffff16146110f7576040517f08c379a00000000000000000000000000000000000000000000000000000000081526004016110ee906134eb565b60405180910390fd5b6111028a8a8a6116aa565b50505050505050505050565b6000600160008473ffffffffffffffffffffffffffffffffffffffff1673ffffffffffffffffffffffffffffffffffffffff16815260200190815260200160002060008373ffffffffffffffffffffffffffffffffffffffff1673ffffffffffffffffffffffffffffffffffffffff16815260200190815260200160002054905092915050565b61119d61286e565b600860008473ffffffffffffffffffffffffffffffffffffffff1673ffffffffffffffffffffffffffffffffffffffff1681526020019081526020016000208263ffffffff16815481106111f4576111f36131f4565b5b906000526020600020016040518060400160405290816000820160009054906101000a900463ffffffff1663ffffffff1663ffffffff1681526020016000820160049054906101000a90047bffffffffffffffffffffffffffffffffffffffffffffffffffffffff167bffffffffffffffffffffffffffffffffffffffffffffffffffffffff167bffffffffffffffffffffffffffffffffffffffffffffffffffffffff1681525050905092915050565b6112ad6116a2565b73ffffffffffffffffffffffffffffffffffffffff166112cb610c0b565b73ffffffffffffffffffffffffffffffffffffffff1614611321576040517f08c379a00000000000000000000000000000000000000000000000000000000081526004016113189061310e565b60405180910390fd5b600073ffffffffffffffffffffffffffffffffffffffff168173ffffffffffffffffffffffffffffffffffffffff1603611390576040517f08c379a00000000000000000000000000000000000000000000000000000000081526004016113879061357d565b60405180910390fd5b61139981611ebe565b50565b6113a68282611429565b6113ae612043565b7bffffffffffffffffffffffffffffffffffffffffffffffffffffffff166113d46106dc565b1115611415576040517f08c379a000000000000000000000000000000000000000000000000000000000815260040161140c9061360f565b60405180910390fd5b611423600961158883612067565b50505050565b600073ffffffffffffffffffffffffffffffffffffffff168273ffffffffffffffffffffffffffffffffffffffff1603611498576040517f08c379a000000000000000000000000000000000000000000000000000000000815260040161148f9061367b565b60405180910390fd5b6114a4600083836122df565b80600260008282546114b69190612f6e565b92505081905550806000808473ffffffffffffffffffffffffffffffffffffffff1673ffffffffffffffffffffffffffffffffffffffff168152602001908152602001600020600082825461150b9190612f6e565b925050819055508173ffffffffffffffffffffffffffffffffffffffff16600073ffffffffffffffffffffffffffffffffffffffff167fddf252ad1be2c89b69c2b068fc378daa952ba7f163c4a11628f55a4df523b3ef836040516115709190612aaf565b60405180910390a3611584600083836122e4565b5050565b600081836115969190612f6e565b905092915050565b60007bffffffffffffffffffffffffffffffffffffffffffffffffffffffff8016821115611601576040517f08c379a00000000000000000000000000000000000000000000000000000000081526004016115f89061370d565b60405180910390fd5b819050919050565b600063ffffffff8016821115611654576040517f08c379a000000000000000000000000000000000000000000000000000000000815260040161164b9061379f565b60405180910390fd5b819050919050565b611667838383611687565b6116826116738461092e565b61167c8461092e565b836122f4565b505050565b505050565b6000818361169a91906131c0565b905092915050565b600033905090565b600073ffffffffffffffffffffffffffffffffffffffff168373ffffffffffffffffffffffffffffffffffffffff1603611719576040517f08c379a000000000000000000000000000000000000000000000000000000000815260040161171090613831565b60405180910390fd5b600073ffffffffffffffffffffffffffffffffffffffff168273ffffffffffffffffffffffffffffffffffffffff1603611788576040517f08c379a000000000000000000000000000000000000000000000000000000000815260040161177f906138c3565b60405180910390fd5b80600160008573ffffffffffffffffffffffffffffffffffffffff1673ffffffffffffffffffffffffffffffffffffffff16815260200190815260200160002060008473ffffffffffffffffffffffffffffffffffffffff1673ffffffffffffffffffffffffffffffffffffffff168152602001908152602001600020819055508173ffffffffffffffffffffffffffffffffffffffff168373ffffffffffffffffffffffffffffffffffffffff167f8c5be1e5ebec7d5bd14f71427d1e84f3dd0314c0f7b2291e5b200ac8c7c3b925836040516118669190612aaf565b60405180910390a3505050565b600061187f848461110e565b90507fffffffffffffffffffffffffffffffffffffffffffffffffffffffffffffffff81146118f957818110156118eb576040517f08c379a00000000000000000000000000000000000000000000000000000000081526004016118e29061392f565b60405180910390fd5b6118f884848484036116aa565b5b50505050565b600073ffffffffffffffffffffffffffffffffffffffff168373ffffffffffffffffffffffffffffffffffffffff160361196e576040517f08c379a0000000000000000000000000000000000000000000000000000000008152600401611965906139c1565b60405180910390fd5b600073ffffffffffffffffffffffffffffffffffffffff168273ffffffffffffffffffffffffffffffffffffffff16036119dd576040517f08c379a00000000000000000000000000000000000000000000000000000000081526004016119d490613a53565b60405180910390fd5b6119e88383836122df565b60008060008573ffffffffffffffffffffffffffffffffffffffff1673ffffffffffffffffffffffffffffffffffffffff16815260200190815260200160002054905081811015611a6e576040517f08c379a0000000000000000000000000000000000000000000000000000000008152600401611a6590613ae5565b60405180910390fd5b8181036000808673ffffffffffffffffffffffffffffffffffffffff1673ffffffffffffffffffffffffffffffffffffffff16815260200190815260200160002081905550816000808573ffffffffffffffffffffffffffffffffffffffff1673ffffffffffffffffffffffffffffffffffffffff1681526020019081526020016000206000828254611b019190612f6e565b925050819055508273ffffffffffffffffffffffffffffffffffffffff168473ffffffffffffffffffffffffffffffffffffffff167fddf252ad1be2c89b69c2b068fc378daa952ba7f163c4a11628f55a4df523b3ef84604051611b659190612aaf565b60405180910390a3611b788484846122e4565b50505050565b60007f000000000000000000000000000000000000000000000000000000000000000073ffffffffffffffffffffffffffffffffffffffff163073ffffffffffffffffffffffffffffffffffffffff16148015611bfa57507f000000000000000000000000000000000000000000000000000000000000000046145b15611c27577f00000000000000000000000000000000000000000000000000000000000000009050611c95565b611c927f00000000000000000000000000000000000000000000000000000000000000007f00000000000000000000000000000000000000000000000000000000000000007f00000000000000000000000000000000000000000000000000000000000000006124ed565b90505b90565b6000808380549050905060005b81811015611d17576000611cb98284612527565b905084868281548110611ccf57611cce6131f4565b5b9060005260206000200160000160009054906101000a900463ffffffff1663ffffffff161115611d0157809250611d11565b600181611d0e9190612f6e565b91505b50611ca5565b60008214611d795784600183611d2d91906131c0565b81548110611d3e57611d3d6131f4565b5b9060005260206000200160000160049054906101000a90047bffffffffffffffffffffffffffffffffffffffffffffffffffffffff16611d7c565b60005b7bffffffffffffffffffffffffffffffffffffffffffffffffffffffff169250505092915050565b6000611daf8361092e565b90506000611dbc846109ff565b905082600760008673ffffffffffffffffffffffffffffffffffffffff1673ffffffffffffffffffffffffffffffffffffffff16815260200190815260200160002060006101000a81548173ffffffffffffffffffffffffffffffffffffffff021916908373ffffffffffffffffffffffffffffffffffffffff1602179055508273ffffffffffffffffffffffffffffffffffffffff168273ffffffffffffffffffffffffffffffffffffffff168573ffffffffffffffffffffffffffffffffffffffff167f3134e8a2e6d97e929a7e54011ea5485d7d196dd5f0ba4d4ef95803e8e3fc257f60405160405180910390a4611eb88284836122f4565b50505050565b6000600a60009054906101000a900473ffffffffffffffffffffffffffffffffffffffff16905081600a60006101000a81548173ffffffffffffffffffffffffffffffffffffffff021916908373ffffffffffffffffffffffffffffffffffffffff1602179055508173ffffffffffffffffffffffffffffffffffffffff168173ffffffffffffffffffffffffffffffffffffffff167f8be0079c531659141344cd1fd0a4f28419497f9722a3daafe3b4186f6b6457e060405160405180910390a35050565b611f8e828261139c565b5050565b600081600001549050919050565b6000611fb3611fad611b7e565b8361254d565b9050919050565b6000806000611fcb87878787612580565b91509150611fd88161268c565b8192505050949350505050565b600080600560008473ffffffffffffffffffffffffffffffffffffffff1673ffffffffffffffffffffffffffffffffffffffff168152602001908152602001600020905061203281611f92565b915061203d81612858565b50919050565b60007bffffffffffffffffffffffffffffffffffffffffffffffffffffffff905090565b600080600085805490509050600081146120d5578560018261208991906131c0565b8154811061209a576120996131f4565b5b9060005260206000200160000160049054906101000a90047bffffffffffffffffffffffffffffffffffffffffffffffffffffffff166120d8565b60005b7bffffffffffffffffffffffffffffffffffffffffffffffffffffffff16925061210683858763ffffffff16565b91506000811180156121595750438660018361212291906131c0565b81548110612133576121326131f4565b5b9060005260206000200160000160009054906101000a900463ffffffff1663ffffffff16145b156121e6576121678261159e565b8660018361217591906131c0565b81548110612186576121856131f4565b5b9060005260206000200160000160046101000a8154817bffffffffffffffffffffffffffffffffffffffffffffffffffffffff02191690837bffffffffffffffffffffffffffffffffffffffffffffffffffffffff1602179055506122d6565b8560405180604001604052806121fb43611609565b63ffffffff16815260200161220f8561159e565b7bffffffffffffffffffffffffffffffffffffffffffffffffffffffff168152509080600181540180825580915050600190039060005260206000200160009091909190915060008201518160000160006101000a81548163ffffffff021916908363ffffffff16021790555060208201518160000160046101000a8154817bffffffffffffffffffffffffffffffffffffffffffffffffffffffff02191690837bffffffffffffffffffffffffffffffffffffffffffffffffffffffff16021790555050505b50935093915050565b505050565b6122ef83838361165c565b505050565b8173ffffffffffffffffffffffffffffffffffffffff168373ffffffffffffffffffffffffffffffffffffffff16141580156123305750600081115b156124e857600073ffffffffffffffffffffffffffffffffffffffff168373ffffffffffffffffffffffffffffffffffffffff161461240e576000806123b7600860008773ffffffffffffffffffffffffffffffffffffffff1673ffffffffffffffffffffffffffffffffffffffff16815260200190815260200160002061168c85612067565b915091508473ffffffffffffffffffffffffffffffffffffffff167fdec2bacdd2f05b59de34da9b523dff8be42e5e38e818c82fdb0bae774387a7248383604051612403929190613b05565b60405180910390a250505b600073ffffffffffffffffffffffffffffffffffffffff168273ffffffffffffffffffffffffffffffffffffffff16146124e757600080612490600860008673ffffffffffffffffffffffffffffffffffffffff1673ffffffffffffffffffffffffffffffffffffffff16815260200190815260200160002061158885612067565b915091508373ffffffffffffffffffffffffffffffffffffffff167fdec2bacdd2f05b59de34da9b523dff8be42e5e38e818c82fdb0bae774387a72483836040516124dc929190613b05565b60405180910390a250505b5b505050565b60008383834630604051602001612508959493929190613b2e565b6040516020818303038152906040528051906020012090509392505050565b600060028284186125389190613bb0565b8284166125459190612f6e565b905092915050565b60008282604051602001612562929190613c59565b60405160208183030381529060405280519060200120905092915050565b6000807f7fffffffffffffffffffffffffffffff5d576e7357a4501ddfe92f46681b20a08360001c11156125bb576000600391509150612683565b601b8560ff16141580156125d35750601c8560ff1614155b156125e5576000600491509150612683565b60006001878787876040516000815260200160405260405161260a9493929190613c90565b6020604051602081039080840390855afa15801561262c573d6000803e3d6000fd5b505050602060405103519050600073ffffffffffffffffffffffffffffffffffffffff168173ffffffffffffffffffffffffffffffffffffffff160361267a57600060019250925050612683565b80600092509250505b94509492505050565b600060048111156126a05761269f613cd5565b5b8160048111156126b3576126b2613cd5565b5b031561285557600160048111156126cd576126cc613cd5565b5b8160048111156126e0576126df613cd5565b5b03612720576040517f08c379a000000000000000000000000000000000000000000000000000000000815260040161271790613d50565b60405180910390fd5b6002600481111561273457612733613cd5565b5b81600481111561274757612746613cd5565b5b03612787576040517f08c379a000000000000000000000000000000000000000000000000000000000815260040161277e90613dbc565b60405180910390fd5b6003600481111561279b5761279a613cd5565b5b8160048111156127ae576127ad613cd5565b5b036127ee576040517f08c379a00000000000000000000000000000000000000000000000000000000081526004016127e590613e4e565b60405180910390fd5b60048081111561280157612800613cd5565b5b81600481111561281457612813613cd5565b5b03612854576040517f08c379a000000000000000000000000000000000000000000000000000000000815260040161284b90613ee0565b60405180910390fd5b5b50565b6001816000016000828254019250508190555050565b6040518060400160405280600063ffffffff16815260200160007bffffffffffffffffffffffffffffffffffffffffffffffffffffffff1681525090565b600081519050919050565b600082825260208201905092915050565b60005b838110156128e65780820151818401526020810190506128cb565b838111156128f5576000848401525b50505050565b6000601f19601f8301169050919050565b6000612917826128ac565b61292181856128b7565b93506129318185602086016128c8565b61293a816128fb565b840191505092915050565b6000602082019050818103600083015261295f818461290c565b905092915050565b600073ffffffffffffffffffffffffffffffffffffffff82169050919050565b600061299282612967565b9050919050565b6129a281612987565b82525050565b60006020820190506129bd6000830184612999565b92915050565b600080fd5b6129d181612987565b81146129dc57600080fd5b50565b6000813590506129ee816129c8565b92915050565b6000819050919050565b612a07816129f4565b8114612a1257600080fd5b50565b600081359050612a24816129fe565b92915050565b60008060408385031215612a4157612a406129c3565b5b6000612a4f858286016129df565b9250506020612a6085828601612a15565b9150509250929050565b60008115159050919050565b612a7f81612a6a565b82525050565b6000602082019050612a9a6000830184612a76565b92915050565b612aa9816129f4565b82525050565b6000602082019050612ac46000830184612aa0565b92915050565b600080600060608486031215612ae357612ae26129c3565b5b6000612af1868287016129df565b9350506020612b02868287016129df565b9250506040612b1386828701612a15565b9150509250925092565b600060ff82169050919050565b612b3381612b1d565b82525050565b6000602082019050612b4e6000830184612b2a565b92915050565b6000819050919050565b612b6781612b54565b82525050565b6000602082019050612b826000830184612b5e565b92915050565b600060208284031215612b9e57612b9d6129c3565b5b6000612bac848285016129df565b91505092915050565b600063ffffffff82169050919050565b612bce81612bb5565b82525050565b6000602082019050612be96000830184612bc5565b92915050565b600060208284031215612c0557612c046129c3565b5b6000612c1384828501612a15565b91505092915050565b612c2581612b1d565b8114612c3057600080fd5b50565b600081359050612c4281612c1c565b92915050565b612c5181612b54565b8114612c5c57600080fd5b50565b600081359050612c6e81612c48565b92915050565b60008060008060008060c08789031215612c9157612c906129c3565b5b6000612c9f89828a016129df565b9650506020612cb089828a01612a15565b9550506040612cc189828a01612a15565b9450506060612cd289828a01612c33565b9350506080612ce389828a01612c5f565b92505060a0612cf489828a01612c5f565b9150509295509295509295565b600080600080600080600060e0888a031215612d2057612d1f6129c3565b5b6000612d2e8a828b016129df565b9750506020612d3f8a828b016129df565b9650506040612d508a828b01612a15565b9550506060612d618a828b01612a15565b9450506080612d728a828b01612c33565b93505060a0612d838a828b01612c5f565b92505060c0612d948a828b01612c5f565b91505092959891949750929550565b60008060408385031215612dba57612db96129c3565b5b6000612dc8858286016129df565b9250506020612dd9858286016129df565b9150509250929050565b612dec81612bb5565b8114612df757600080fd5b50565b600081359050612e0981612de3565b92915050565b60008060408385031215612e2657612e256129c3565b5b6000612e34858286016129df565b9250506020612e4585828601612dfa565b9150509250929050565b612e5881612bb5565b82525050565b60007bffffffffffffffffffffffffffffffffffffffffffffffffffffffff82169050919050565b612e8f81612e5e565b82525050565b604082016000820151612eab6000850182612e4f565b506020820151612ebe6020850182612e86565b50505050565b6000604082019050612ed96000830184612e95565b92915050565b7f4e487b7100000000000000000000000000000000000000000000000000000000600052602260045260246000fd5b60006002820490506001821680612f2657607f821691505b602082108103612f3957612f38612edf565b5b50919050565b7f4e487b7100000000000000000000000000000000000000000000000000000000600052601160045260246000fd5b6000612f79826129f4565b9150612f84836129f4565b9250827fffffffffffffffffffffffffffffffffffffffffffffffffffffffffffffffff03821115612fb957612fb8612f3f565b5b828201905092915050565b7f4552433230566f7465733a20626c6f636b206e6f7420796574206d696e656400600082015250565b6000612ffa601f836128b7565b915061300582612fc4565b602082019050919050565b6000602082019050818103600083015261302981612fed565b9050919050565b7f6f6e6c7920746865206f776e65722063616e2070617373206d696e746572207260008201527f6f6c650000000000000000000000000000000000000000000000000000000000602082015250565b600061308c6023836128b7565b915061309782613030565b604082019050919050565b600060208201905081810360008301526130bb8161307f565b9050919050565b7f4f776e61626c653a2063616c6c6572206973206e6f7420746865206f776e6572600082015250565b60006130f86020836128b7565b9150613103826130c2565b602082019050919050565b60006020820190508181036000830152613127816130eb565b9050919050565b7f6572726f722c206d73672e73656e64657220646f6573206e6f7420686176652060008201527f746865206d696e74657220726f6c650000000000000000000000000000000000602082015250565b600061318a602f836128b7565b91506131958261312e565b604082019050919050565b600060208201905081810360008301526131b98161317d565b9050919050565b60006131cb826129f4565b91506131d6836129f4565b9250828210156131e9576131e8612f3f565b5b828203905092915050565b7f4e487b7100000000000000000000000000000000000000000000000000000000600052603260045260246000fd5b7f45524332303a2064656372656173656420616c6c6f77616e63652062656c6f7760008201527f207a65726f000000000000000000000000000000000000000000000000000000602082015250565b600061327f6025836128b7565b915061328a82613223565b604082019050919050565b600060208201905081810360008301526132ae81613272565b9050919050565b7f4552433230566f7465733a207369676e61747572652065787069726564000000600082015250565b60006132eb601d836128b7565b91506132f6826132b5565b602082019050919050565b6000602082019050818103600083015261331a816132de565b9050919050565b60006080820190506133366000830187612b5e565b6133436020830186612999565b6133506040830185612aa0565b61335d6060830184612aa0565b95945050505050565b7f4552433230566f7465733a20696e76616c6964206e6f6e636500000000000000600082015250565b600061339c6019836128b7565b91506133a782613366565b602082019050919050565b600060208201905081810360008301526133cb8161338f565b9050919050565b7f45524332305065726d69743a206578706972656420646561646c696e65000000600082015250565b6000613408601d836128b7565b9150613413826133d2565b602082019050919050565b60006020820190508181036000830152613437816133fb565b9050919050565b600060c0820190506134536000830189612b5e565b6134606020830188612999565b61346d6040830187612999565b61347a6060830186612aa0565b6134876080830185612aa0565b61349460a0830184612aa0565b979650505050505050565b7f45524332305065726d69743a20696e76616c6964207369676e61747572650000600082015250565b60006134d5601e836128b7565b91506134e08261349f565b602082019050919050565b60006020820190508181036000830152613504816134c8565b9050919050565b7f4f776e61626c653a206e6577206f776e657220697320746865207a65726f206160008201527f6464726573730000000000000000000000000000000000000000000000000000602082015250565b60006135676026836128b7565b91506135728261350b565b604082019050919050565b600060208201905081810360008301526135968161355a565b9050919050565b7f4552433230566f7465733a20746f74616c20737570706c79207269736b73206f60008201527f766572666c6f77696e6720766f74657300000000000000000000000000000000602082015250565b60006135f96030836128b7565b91506136048261359d565b604082019050919050565b60006020820190508181036000830152613628816135ec565b9050919050565b7f45524332303a206d696e7420746f20746865207a65726f206164647265737300600082015250565b6000613665601f836128b7565b91506136708261362f565b602082019050919050565b6000602082019050818103600083015261369481613658565b9050919050565b7f53616665436173743a2076616c756520646f65736e27742066697420696e203260008201527f3234206269747300000000000000000000000000000000000000000000000000602082015250565b60006136f76027836128b7565b91506137028261369b565b604082019050919050565b60006020820190508181036000830152613726816136ea565b9050919050565b7f53616665436173743a2076616c756520646f65736e27742066697420696e203360008201527f3220626974730000000000000000000000000000000000000000000000000000602082015250565b60006137896026836128b7565b91506137948261372d565b604082019050919050565b600060208201905081810360008301526137b88161377c565b9050919050565b7f45524332303a20617070726f76652066726f6d20746865207a65726f2061646460008201527f7265737300000000000000000000000000000000000000000000000000000000602082015250565b600061381b6024836128b7565b9150613826826137bf565b604082019050919050565b6000602082019050818103600083015261384a8161380e565b9050919050565b7f45524332303a20617070726f766520746f20746865207a65726f20616464726560008201527f7373000000000000000000000000000000000000000000000000000000000000602082015250565b60006138ad6022836128b7565b91506138b882613851565b604082019050919050565b600060208201905081810360008301526138dc816138a0565b9050919050565b7f45524332303a20696e73756666696369656e7420616c6c6f77616e6365000000600082015250565b6000613919601d836128b7565b9150613924826138e3565b602082019050919050565b600060208201905081810360008301526139488161390c565b9050919050565b7f45524332303a207472616e736665722066726f6d20746865207a65726f20616460008201527f6472657373000000000000000000000000000000000000000000000000000000602082015250565b60006139ab6025836128b7565b91506139b68261394f565b604082019050919050565b600060208201905081810360008301526139da8161399e565b9050919050565b7f45524332303a207472616e7366657220746f20746865207a65726f206164647260008201527f6573730000000000000000000000000000000000000000000000000000000000602082015250565b6000613a3d6023836128b7565b9150613a48826139e1565b604082019050919050565b60006020820190508181036000830152613a6c81613a30565b9050919050565b7f45524332303a207472616e7366657220616d6f756e742065786365656473206260008201527f616c616e63650000000000000000000000000000000000000000000000000000602082015250565b6000613acf6026836128b7565b9150613ada82613a73565b604082019050919050565b60006020820190508181036000830152613afe81613ac2565b9050919050565b6000604082019050613b1a6000830185612aa0565b613b276020830184612aa0565b9392505050565b600060a082019050613b436000830188612b5e565b613b506020830187612b5e565b613b5d6040830186612b5e565b613b6a6060830185612aa0565b613b776080830184612999565b9695505050505050565b7f4e487b7100000000000000000000000000000000000000000000000000000000600052601260045260246000fd5b6000613bbb826129f4565b9150613bc6836129f4565b925082613bd657613bd5613b81565b5b828204905092915050565b600081905092915050565b7f1901000000000000000000000000000000000000000000000000000000000000600082015250565b6000613c22600283613be1565b9150613c2d82613bec565b600282019050919050565b6000819050919050565b613c53613c4e82612b54565b613c38565b82525050565b6000613c6482613c15565b9150613c708285613c42565b602082019150613c808284613c42565b6020820191508190509392505050565b6000608082019050613ca56000830187612b5e565b613cb26020830186612b2a565b613cbf6040830185612b5e565b613ccc6060830184612b5e565b95945050505050565b7f4e487b7100000000000000000000000000000000000000000000000000000000600052602160045260246000fd5b7f45434453413a20696e76616c6964207369676e61747572650000000000000000600082015250565b6000613d3a6018836128b7565b9150613d4582613d04565b602082019050919050565b60006020820190508181036000830152613d6981613d2d565b9050919050565b7f45434453413a20696e76616c6964207369676e6174757265206c656e67746800600082015250565b6000613da6601f836128b7565b9150613db182613d70565b602082019050919050565b60006020820190508181036000830152613dd581613d99565b9050919050565b7f45434453413a20696e76616c6964207369676e6174757265202773272076616c60008201527f7565000000000000000000000000000000000000000000000000000000000000602082015250565b6000613e386022836128b7565b9150613e4382613ddc565b604082019050919050565b60006020820190508181036000830152613e6781613e2b565b9050919050565b7f45434453413a20696e76616c6964207369676e6174757265202776272076616c60008201527f7565000000000000000000000000000000000000000000000000000000000000602082015250565b6000613eca6022836128b7565b9150613ed582613e6e565b604082019050919050565b60006020820190508181036000830152613ef981613ebd565b905091905056fea26469706673582212200126abc6d3cbe5cd80bcc5b3863aeb9b84c9dcfc97ad28708ab4a77513d7940b64736f6c634300080e0033",
  "immutableReferences": {
    "6846": [
      {
        "length": 32,
        "start": 7169
      }
    ],
    "6848": [
      {
        "length": 32,
        "start": 7128
      }
    ],
    "6850": [
      {
        "length": 32,
        "start": 7042
      }
    ],
    "6852": [
      {
        "length": 32,
        "start": 7245
      }
    ],
    "6854": [
      {
        "length": 32,
        "start": 7278
      }
    ],
    "6856": [
      {
        "length": 32,
        "start": 7212
      }
    ]
  },
  "source": "pragma solidity ^0.8.0;\r\n\r\nimport  \"@openzeppelin/contracts/token/ERC20/ERC20.sol\";\r\nimport \"@openzeppelin/contracts/token/ERC20/extensions/draft-ERC20Permit.sol\";\r\nimport \"@openzeppelin/contracts/token/ERC20/extensions/ERC20Votes.sol\";\r\nimport \"@openzeppelin/contracts/access/Ownable.sol\";\r\n\r\ncontract DigiToken is ERC20, ERC20Permit, ERC20Votes, Ownable {\r\n\r\naddress public minter; \r\n\r\nevent MinterChanged(address indexed from, address indexed to);\r\nevent TokenMinted(address indexed _from, uint256 _amount);\r\n\r\n    constructor() public ERC20(\"DigitalToken\", \"DGT\") ERC20Permit('DigitalToken')  { // here we are initilaizing the digitoken, erc20Permit, and creating the supply for digitalToken \r\n        minter = msg.sender;\r\n        _mint(msg.sender, 1000000 * (10 ** uint256(decimals())));\r\n    }\r\n\r\n    function _afterTokenTransfer(address from, address to, uint256 amount)\r\n        internal\r\n        override(ERC20, ERC20Votes)\r\n    {\r\n        super._afterTokenTransfer(from, to, amount);\r\n    }\r\n\r\n    function _mint(address to, uint256 amount)\r\n        internal\r\n        override(ERC20, ERC20Votes)\r\n    {\r\n        super._mint(to, amount);\r\n    }\r\n\r\n    function _burn(address account, uint256 amount)\r\n        internal\r\n        override(ERC20, ERC20Votes)\r\n    {\r\n        super._burn(account, amount);\r\n    }\r\n\r\n    function PassMinterRole (address digiBank) public returns (bool) { // Pass the minter role to the digital bank, so only the bank \r\n \r\n        require(msg.sender==minter, 'only the owner can pass minter role');\r\n        minter = digiBank; \r\n    \r\n        emit MinterChanged(msg.sender, digiBank);\r\n        return true;\r\n    }\r\n\r\n    function MintTokens(address account, uint256 amount) public {   // creating the mint token funciton, that will used externally in DigiBnak.sol \r\n    require(msg.sender==minter, \"error, msg.sender does not have the minter role\");\r\n    \r\n    _mint(account, amount);\r\n\r\n    emit TokenMinted(msg.sender, amount);\r\n}\r\n\r\n}\r\n\r\n",
  "sourcePath": "C:\\Users\\12819\\DigitalBank\\contracts\\Governor\\Token.sol",
  "compiler": {
    "name": "solc",
    "version": "0.8.14+commit.80d49f37.Emscripten.clang"
  },
  "schemaVersion": "3.4.7",
  "updatedAt": "2022-07-18T14:57:36.233Z",
  "networkType": "ethereum",
  "devdoc": {
    "kind": "dev",
    "methods": {
      "DOMAIN_SEPARATOR()": {
        "details": "See {IERC20Permit-DOMAIN_SEPARATOR}."
      },
      "allowance(address,address)": {
        "details": "See {IERC20-allowance}."
      },
      "approve(address,uint256)": {
        "details": "See {IERC20-approve}. NOTE: If `amount` is the maximum `uint256`, the allowance is not updated on `transferFrom`. This is semantically equivalent to an infinite approval. Requirements: - `spender` cannot be the zero address."
      },
      "balanceOf(address)": {
        "details": "See {IERC20-balanceOf}."
      },
      "checkpoints(address,uint32)": {
        "details": "Get the `pos`-th checkpoint for `account`."
      },
      "decimals()": {
        "details": "Returns the number of decimals used to get its user representation. For example, if `decimals` equals `2`, a balance of `505` tokens should be displayed to a user as `5.05` (`505 / 10 ** 2`). Tokens usually opt for a value of 18, imitating the relationship between Ether and Wei. This is the value {ERC20} uses, unless this function is overridden; NOTE: This information is only used for _display_ purposes: it in no way affects any of the arithmetic of the contract, including {IERC20-balanceOf} and {IERC20-transfer}."
      },
      "decreaseAllowance(address,uint256)": {
        "details": "Atomically decreases the allowance granted to `spender` by the caller. This is an alternative to {approve} that can be used as a mitigation for problems described in {IERC20-approve}. Emits an {Approval} event indicating the updated allowance. Requirements: - `spender` cannot be the zero address. - `spender` must have allowance for the caller of at least `subtractedValue`."
      },
      "delegate(address)": {
        "details": "Delegate votes from the sender to `delegatee`."
      },
      "delegateBySig(address,uint256,uint256,uint8,bytes32,bytes32)": {
        "details": "Delegates votes from signer to `delegatee`"
      },
      "delegates(address)": {
        "details": "Get the address `account` is currently delegating to."
      },
      "getPastTotalSupply(uint256)": {
        "details": "Retrieve the `totalSupply` at the end of `blockNumber`. Note, this value is the sum of all balances. It is but NOT the sum of all the delegated votes! Requirements: - `blockNumber` must have been already mined"
      },
      "getPastVotes(address,uint256)": {
        "details": "Retrieve the number of votes for `account` at the end of `blockNumber`. Requirements: - `blockNumber` must have been already mined"
      },
      "getVotes(address)": {
        "details": "Gets the current votes balance for `account`"
      },
      "increaseAllowance(address,uint256)": {
        "details": "Atomically increases the allowance granted to `spender` by the caller. This is an alternative to {approve} that can be used as a mitigation for problems described in {IERC20-approve}. Emits an {Approval} event indicating the updated allowance. Requirements: - `spender` cannot be the zero address."
      },
      "name()": {
        "details": "Returns the name of the token."
      },
      "nonces(address)": {
        "details": "See {IERC20Permit-nonces}."
      },
      "numCheckpoints(address)": {
        "details": "Get number of checkpoints for `account`."
      },
      "owner()": {
        "details": "Returns the address of the current owner."
      },
      "permit(address,address,uint256,uint256,uint8,bytes32,bytes32)": {
        "details": "See {IERC20Permit-permit}."
      },
      "renounceOwnership()": {
        "details": "Leaves the contract without owner. It will not be possible to call `onlyOwner` functions anymore. Can only be called by the current owner. NOTE: Renouncing ownership will leave the contract without an owner, thereby removing any functionality that is only available to the owner."
      },
      "symbol()": {
        "details": "Returns the symbol of the token, usually a shorter version of the name."
      },
      "totalSupply()": {
        "details": "See {IERC20-totalSupply}."
      },
      "transfer(address,uint256)": {
        "details": "See {IERC20-transfer}. Requirements: - `to` cannot be the zero address. - the caller must have a balance of at least `amount`."
      },
      "transferFrom(address,address,uint256)": {
        "details": "See {IERC20-transferFrom}. Emits an {Approval} event indicating the updated allowance. This is not required by the EIP. See the note at the beginning of {ERC20}. NOTE: Does not update the allowance if the current allowance is the maximum `uint256`. Requirements: - `from` and `to` cannot be the zero address. - `from` must have a balance of at least `amount`. - the caller must have allowance for ``from``'s tokens of at least `amount`."
      },
      "transferOwnership(address)": {
        "details": "Transfers ownership of the contract to a new account (`newOwner`). Can only be called by the current owner."
      }
    },
    "version": 1
  },
  "userdoc": {
    "kind": "user",
    "methods": {},
    "version": 1
  }
}