{
  "contractName": "DigiToken",
  "abi": [
    {
      "inputs": [],
      "stateMutability": "payable",
      "type": "constructor"
    },
    {
      "anonymous": false,
      "inputs": [
        {
          "indexed": true,
          "internalType": "address",
          "name": "owner",
          "type": "address"
        },
        {
          "indexed": true,
          "internalType": "address",
          "name": "spender",
          "type": "address"
        },
        {
          "indexed": false,
          "internalType": "uint256",
          "name": "value",
          "type": "uint256"
        }
      ],
      "name": "Approval",
      "type": "event"
    },
    {
      "anonymous": false,
      "inputs": [
        {
          "indexed": true,
          "internalType": "address",
          "name": "_from",
          "type": "address"
        },
        {
          "indexed": false,
          "internalType": "address",
          "name": "indexed_from",
          "type": "address"
        }
      ],
      "name": "MinterChanged",
      "type": "event"
    },
    {
      "anonymous": false,
      "inputs": [
        {
          "indexed": true,
          "internalType": "address",
          "name": "_from",
          "type": "address"
        },
        {
          "indexed": false,
          "internalType": "uint256",
          "name": "_amount",
          "type": "uint256"
        }
      ],
      "name": "TokenMinted",
      "type": "event"
    },
    {
      "anonymous": false,
      "inputs": [
        {
          "indexed": true,
          "internalType": "address",
          "name": "from",
          "type": "address"
        },
        {
          "indexed": true,
          "internalType": "address",
          "name": "to",
          "type": "address"
        },
        {
          "indexed": false,
          "internalType": "uint256",
          "name": "value",
          "type": "uint256"
        }
      ],
      "name": "Transfer",
      "type": "event"
    },
    {
      "inputs": [
        {
          "internalType": "address",
          "name": "owner",
          "type": "address"
        },
        {
          "internalType": "address",
          "name": "spender",
          "type": "address"
        }
      ],
      "name": "allowance",
      "outputs": [
        {
          "internalType": "uint256",
          "name": "",
          "type": "uint256"
        }
      ],
      "stateMutability": "view",
      "type": "function"
    },
    {
      "inputs": [
        {
          "internalType": "address",
          "name": "spender",
          "type": "address"
        },
        {
          "internalType": "uint256",
          "name": "amount",
          "type": "uint256"
        }
      ],
      "name": "approve",
      "outputs": [
        {
          "internalType": "bool",
          "name": "",
          "type": "bool"
        }
      ],
      "stateMutability": "nonpayable",
      "type": "function"
    },
    {
      "inputs": [
        {
          "internalType": "address",
          "name": "account",
          "type": "address"
        }
      ],
      "name": "balanceOf",
      "outputs": [
        {
          "internalType": "uint256",
          "name": "",
          "type": "uint256"
        }
      ],
      "stateMutability": "view",
      "type": "function"
    },
    {
      "inputs": [],
      "name": "decimals",
      "outputs": [
        {
          "internalType": "uint8",
          "name": "",
          "type": "uint8"
        }
      ],
      "stateMutability": "view",
      "type": "function"
    },
    {
      "inputs": [
        {
          "internalType": "address",
          "name": "spender",
          "type": "address"
        },
        {
          "internalType": "uint256",
          "name": "subtractedValue",
          "type": "uint256"
        }
      ],
      "name": "decreaseAllowance",
      "outputs": [
        {
          "internalType": "bool",
          "name": "",
          "type": "bool"
        }
      ],
      "stateMutability": "nonpayable",
      "type": "function"
    },
    {
      "inputs": [
        {
          "internalType": "address",
          "name": "spender",
          "type": "address"
        },
        {
          "internalType": "uint256",
          "name": "addedValue",
          "type": "uint256"
        }
      ],
      "name": "increaseAllowance",
      "outputs": [
        {
          "internalType": "bool",
          "name": "",
          "type": "bool"
        }
      ],
      "stateMutability": "nonpayable",
      "type": "function"
    },
    {
      "inputs": [],
      "name": "minter",
      "outputs": [
        {
          "internalType": "address",
          "name": "",
          "type": "address"
        }
      ],
      "stateMutability": "view",
      "type": "function"
    },
    {
      "inputs": [],
      "name": "name",
      "outputs": [
        {
          "internalType": "string",
          "name": "",
          "type": "string"
        }
      ],
      "stateMutability": "view",
      "type": "function"
    },
    {
      "inputs": [],
      "name": "symbol",
      "outputs": [
        {
          "internalType": "string",
          "name": "",
          "type": "string"
        }
      ],
      "stateMutability": "view",
      "type": "function"
    },
    {
      "inputs": [],
      "name": "totalSupply",
      "outputs": [
        {
          "internalType": "uint256",
          "name": "",
          "type": "uint256"
        }
      ],
      "stateMutability": "view",
      "type": "function"
    },
    {
      "inputs": [
        {
          "internalType": "address",
          "name": "recipient",
          "type": "address"
        },
        {
          "internalType": "uint256",
          "name": "amount",
          "type": "uint256"
        }
      ],
      "name": "transfer",
      "outputs": [
        {
          "internalType": "bool",
          "name": "",
          "type": "bool"
        }
      ],
      "stateMutability": "nonpayable",
      "type": "function"
    },
    {
      "inputs": [
        {
          "internalType": "address",
          "name": "sender",
          "type": "address"
        },
        {
          "internalType": "address",
          "name": "recipient",
          "type": "address"
        },
        {
          "internalType": "uint256",
          "name": "amount",
          "type": "uint256"
        }
      ],
      "name": "transferFrom",
      "outputs": [
        {
          "internalType": "bool",
          "name": "",
          "type": "bool"
        }
      ],
      "stateMutability": "nonpayable",
      "type": "function"
    },
    {
      "inputs": [],
      "name": "MintTokens",
      "outputs": [],
      "stateMutability": "payable",
      "type": "function"
    }
  ],
  "bytecode": "0x60806040526040518060400160405280600d81526020017f4469676974616c20546f6b656e000000000000000000000000000000000000008152506040518060400160405280600381526020017f4447540000000000000000000000000000000000000000000000000000000000815250816003908051906020019062000088929190620002b9565b508060049080519060200190620000a1929190620002b9565b50505033600560006101000a81548173ffffffffffffffffffffffffffffffffffffffff021916908373ffffffffffffffffffffffffffffffffffffffff1602179055506200012733620000fa6200012d60201b60201c565b60ff16600a6200010b9190620004a9565b620f42406200011b9190620005e6565b6200013660201b60201c565b6200071b565b60006012905090565b600073ffffffffffffffffffffffffffffffffffffffff168273ffffffffffffffffffffffffffffffffffffffff161415620001a9576040517f08c379a0000000000000000000000000000000000000000000000000000000008152600401620001a090620003a1565b60405180910390fd5b620001bd60008383620002af60201b60201c565b8060026000828254620001d19190620003f1565b92505081905550806000808473ffffffffffffffffffffffffffffffffffffffff1673ffffffffffffffffffffffffffffffffffffffff1681526020019081526020016000206000828254620002289190620003f1565b925050819055508173ffffffffffffffffffffffffffffffffffffffff16600073ffffffffffffffffffffffffffffffffffffffff167fddf252ad1be2c89b69c2b068fc378daa952ba7f163c4a11628f55a4df523b3ef836040516200028f9190620003c3565b60405180910390a3620002ab60008383620002b460201b60201c565b5050565b505050565b505050565b828054620002c79062000651565b90600052602060002090601f016020900481019282620002eb576000855562000337565b82601f106200030657805160ff191683800117855562000337565b8280016001018555821562000337579182015b828111156200033657825182559160200191906001019062000319565b5b5090506200034691906200034a565b5090565b5b80821115620003655760008160009055506001016200034b565b5090565b600062000378601f83620003e0565b91506200038582620006f2565b602082019050919050565b6200039b8162000647565b82525050565b60006020820190508181036000830152620003bc8162000369565b9050919050565b6000602082019050620003da600083018462000390565b92915050565b600082825260208201905092915050565b6000620003fe8262000647565b91506200040b8362000647565b9250827fffffffffffffffffffffffffffffffffffffffffffffffffffffffffffffffff0382111562000443576200044262000687565b5b828201905092915050565b6000808291508390505b6001851115620004a05780860481111562000478576200047762000687565b5b6001851615620004885780820291505b80810290506200049885620006e5565b945062000458565b94509492505050565b6000620004b68262000647565b9150620004c38362000647565b9250620004f27fffffffffffffffffffffffffffffffffffffffffffffffffffffffffffffffff8484620004fa565b905092915050565b6000826200050c5760019050620005df565b816200051c5760009050620005df565b8160018114620005355760028114620005405762000576565b6001915050620005df565b60ff84111562000555576200055462000687565b5b8360020a9150848211156200056f576200056e62000687565b5b50620005df565b5060208310610133831016604e8410600b8410161715620005b05782820a905083811115620005aa57620005a962000687565b5b620005df565b620005bf84848460016200044e565b92509050818404811115620005d957620005d862000687565b5b81810290505b9392505050565b6000620005f38262000647565b9150620006008362000647565b9250817fffffffffffffffffffffffffffffffffffffffffffffffffffffffffffffffff04831182151516156200063c576200063b62000687565b5b828202905092915050565b6000819050919050565b600060028204905060018216806200066a57607f821691505b60208210811415620006815762000680620006b6565b5b50919050565b7f4e487b7100000000000000000000000000000000000000000000000000000000600052601160045260246000fd5b7f4e487b7100000000000000000000000000000000000000000000000000000000600052602260045260246000fd5b60008160011c9050919050565b7f45524332303a206d696e7420746f20746865207a65726f206164647265737300600082015250565b6116e8806200072b6000396000f3fe6080604052600436106100c25760003560e01c8063313ce5671161007f57806395d89b411161005957806395d89b4114610271578063a457c2d71461029c578063a9059cbb146102d9578063dd62ed3e14610316576100c2565b8063313ce567146101cc57806339509351146101f757806370a0823114610234576100c2565b806306fdde03146100c757806307546172146100f2578063095ea7b31461011d57806318160ddd1461015a5780631c4888251461018557806323b872dd1461018f575b600080fd5b3480156100d357600080fd5b506100dc610353565b6040516100e9919061113f565b60405180910390f35b3480156100fe57600080fd5b506101076103e5565b6040516101149190611109565b60405180910390f35b34801561012957600080fd5b50610144600480360381019061013f9190610f40565b61040b565b6040516101519190611124565b60405180910390f35b34801561016657600080fd5b5061016f610429565b60405161017c9190611261565b60405180910390f35b61018d610433565b005b34801561019b57600080fd5b506101b660048036038101906101b19190610ef1565b61048d565b6040516101c39190611124565b60405180910390f35b3480156101d857600080fd5b506101e1610585565b6040516101ee919061127c565b60405180910390f35b34801561020357600080fd5b5061021e60048036038101906102199190610f40565b61058e565b60405161022b9190611124565b60405180910390f35b34801561024057600080fd5b5061025b60048036038101906102569190610e8c565b61063a565b6040516102689190611261565b60405180910390f35b34801561027d57600080fd5b50610286610682565b604051610293919061113f565b60405180910390f35b3480156102a857600080fd5b506102c360048036038101906102be9190610f40565b610714565b6040516102d09190611124565b60405180910390f35b3480156102e557600080fd5b5061030060048036038101906102fb9190610f40565b6107ff565b60405161030d9190611124565b60405180910390f35b34801561032257600080fd5b5061033d60048036038101906103389190610eb5565b61081d565b60405161034a9190611261565b60405180910390f35b60606003805461036290611391565b80601f016020809104026020016040519081016040528092919081815260200182805461038e90611391565b80156103db5780601f106103b0576101008083540402835291602001916103db565b820191906000526020600020905b8154815290600101906020018083116103be57829003601f168201915b5050505050905090565b600560009054906101000a900473ffffffffffffffffffffffffffffffffffffffff1681565b600061041f6104186108a4565b84846108ac565b6001905092915050565b6000600254905090565b61043d3334610a77565b3373ffffffffffffffffffffffffffffffffffffffff167fb9144c96c86541f6fa89c9f2f02495cccf4b08cd6643e26d34ee00aa586558a8346040516104839190611261565b60405180910390a2565b600061049a848484610bd7565b6000600160008673ffffffffffffffffffffffffffffffffffffffff1673ffffffffffffffffffffffffffffffffffffffff16815260200190815260200160002060006104e56108a4565b73ffffffffffffffffffffffffffffffffffffffff1673ffffffffffffffffffffffffffffffffffffffff16815260200190815260200160002054905082811015610565576040517f08c379a000000000000000000000000000000000000000000000000000000000815260040161055c906111c1565b60405180910390fd5b610579856105716108a4565b8584036108ac565b60019150509392505050565b60006012905090565b600061063061059b6108a4565b8484600160006105a96108a4565b73ffffffffffffffffffffffffffffffffffffffff1673ffffffffffffffffffffffffffffffffffffffff16815260200190815260200160002060008873ffffffffffffffffffffffffffffffffffffffff1673ffffffffffffffffffffffffffffffffffffffff1681526020019081526020016000205461062b91906112b3565b6108ac565b6001905092915050565b60008060008373ffffffffffffffffffffffffffffffffffffffff1673ffffffffffffffffffffffffffffffffffffffff168152602001908152602001600020549050919050565b60606004805461069190611391565b80601f01602080910402602001604051908101604052809291908181526020018280546106bd90611391565b801561070a5780601f106106df5761010080835404028352916020019161070a565b820191906000526020600020905b8154815290600101906020018083116106ed57829003601f168201915b5050505050905090565b600080600160006107236108a4565b73ffffffffffffffffffffffffffffffffffffffff1673ffffffffffffffffffffffffffffffffffffffff16815260200190815260200160002060008573ffffffffffffffffffffffffffffffffffffffff1673ffffffffffffffffffffffffffffffffffffffff168152602001908152602001600020549050828110156107e0576040517f08c379a00000000000000000000000000000000000000000000000000000000081526004016107d790611221565b60405180910390fd5b6107f46107eb6108a4565b858584036108ac565b600191505092915050565b600061081361080c6108a4565b8484610bd7565b6001905092915050565b6000600160008473ffffffffffffffffffffffffffffffffffffffff1673ffffffffffffffffffffffffffffffffffffffff16815260200190815260200160002060008373ffffffffffffffffffffffffffffffffffffffff1673ffffffffffffffffffffffffffffffffffffffff16815260200190815260200160002054905092915050565b600033905090565b600073ffffffffffffffffffffffffffffffffffffffff168373ffffffffffffffffffffffffffffffffffffffff16141561091c576040517f08c379a000000000000000000000000000000000000000000000000000000000815260040161091390611201565b60405180910390fd5b600073ffffffffffffffffffffffffffffffffffffffff168273ffffffffffffffffffffffffffffffffffffffff16141561098c576040517f08c379a000000000000000000000000000000000000000000000000000000000815260040161098390611181565b60405180910390fd5b80600160008573ffffffffffffffffffffffffffffffffffffffff1673ffffffffffffffffffffffffffffffffffffffff16815260200190815260200160002060008473ffffffffffffffffffffffffffffffffffffffff1673ffffffffffffffffffffffffffffffffffffffff168152602001908152602001600020819055508173ffffffffffffffffffffffffffffffffffffffff168373ffffffffffffffffffffffffffffffffffffffff167f8c5be1e5ebec7d5bd14f71427d1e84f3dd0314c0f7b2291e5b200ac8c7c3b92583604051610a6a9190611261565b60405180910390a3505050565b600073ffffffffffffffffffffffffffffffffffffffff168273ffffffffffffffffffffffffffffffffffffffff161415610ae7576040517f08c379a0000000000000000000000000000000000000000000000000000000008152600401610ade90611241565b60405180910390fd5b610af360008383610e58565b8060026000828254610b0591906112b3565b92505081905550806000808473ffffffffffffffffffffffffffffffffffffffff1673ffffffffffffffffffffffffffffffffffffffff1681526020019081526020016000206000828254610b5a91906112b3565b925050819055508173ffffffffffffffffffffffffffffffffffffffff16600073ffffffffffffffffffffffffffffffffffffffff167fddf252ad1be2c89b69c2b068fc378daa952ba7f163c4a11628f55a4df523b3ef83604051610bbf9190611261565b60405180910390a3610bd360008383610e5d565b5050565b600073ffffffffffffffffffffffffffffffffffffffff168373ffffffffffffffffffffffffffffffffffffffff161415610c47576040517f08c379a0000000000000000000000000000000000000000000000000000000008152600401610c3e906111e1565b60405180910390fd5b600073ffffffffffffffffffffffffffffffffffffffff168273ffffffffffffffffffffffffffffffffffffffff161415610cb7576040517f08c379a0000000000000000000000000000000000000000000000000000000008152600401610cae90611161565b60405180910390fd5b610cc2838383610e58565b60008060008573ffffffffffffffffffffffffffffffffffffffff1673ffffffffffffffffffffffffffffffffffffffff16815260200190815260200160002054905081811015610d48576040517f08c379a0000000000000000000000000000000000000000000000000000000008152600401610d3f906111a1565b60405180910390fd5b8181036000808673ffffffffffffffffffffffffffffffffffffffff1673ffffffffffffffffffffffffffffffffffffffff16815260200190815260200160002081905550816000808573ffffffffffffffffffffffffffffffffffffffff1673ffffffffffffffffffffffffffffffffffffffff1681526020019081526020016000206000828254610ddb91906112b3565b925050819055508273ffffffffffffffffffffffffffffffffffffffff168473ffffffffffffffffffffffffffffffffffffffff167fddf252ad1be2c89b69c2b068fc378daa952ba7f163c4a11628f55a4df523b3ef84604051610e3f9190611261565b60405180910390a3610e52848484610e5d565b50505050565b505050565b505050565b600081359050610e7181611684565b92915050565b600081359050610e868161169b565b92915050565b600060208284031215610e9e57600080fd5b6000610eac84828501610e62565b91505092915050565b60008060408385031215610ec857600080fd5b6000610ed685828601610e62565b9250506020610ee785828601610e62565b9150509250929050565b600080600060608486031215610f0657600080fd5b6000610f1486828701610e62565b9350506020610f2586828701610e62565b9250506040610f3686828701610e77565b9150509250925092565b60008060408385031215610f5357600080fd5b6000610f6185828601610e62565b9250506020610f7285828601610e77565b9150509250929050565b610f8581611309565b82525050565b610f948161131b565b82525050565b6000610fa582611297565b610faf81856112a2565b9350610fbf81856020860161135e565b610fc881611421565b840191505092915050565b6000610fe06023836112a2565b9150610feb82611432565b604082019050919050565b60006110036022836112a2565b915061100e82611481565b604082019050919050565b60006110266026836112a2565b9150611031826114d0565b604082019050919050565b60006110496028836112a2565b91506110548261151f565b604082019050919050565b600061106c6025836112a2565b91506110778261156e565b604082019050919050565b600061108f6024836112a2565b915061109a826115bd565b604082019050919050565b60006110b26025836112a2565b91506110bd8261160c565b604082019050919050565b60006110d5601f836112a2565b91506110e08261165b565b602082019050919050565b6110f481611347565b82525050565b61110381611351565b82525050565b600060208201905061111e6000830184610f7c565b92915050565b60006020820190506111396000830184610f8b565b92915050565b600060208201905081810360008301526111598184610f9a565b905092915050565b6000602082019050818103600083015261117a81610fd3565b9050919050565b6000602082019050818103600083015261119a81610ff6565b9050919050565b600060208201905081810360008301526111ba81611019565b9050919050565b600060208201905081810360008301526111da8161103c565b9050919050565b600060208201905081810360008301526111fa8161105f565b9050919050565b6000602082019050818103600083015261121a81611082565b9050919050565b6000602082019050818103600083015261123a816110a5565b9050919050565b6000602082019050818103600083015261125a816110c8565b9050919050565b600060208201905061127660008301846110eb565b92915050565b600060208201905061129160008301846110fa565b92915050565b600081519050919050565b600082825260208201905092915050565b60006112be82611347565b91506112c983611347565b9250827fffffffffffffffffffffffffffffffffffffffffffffffffffffffffffffffff038211156112fe576112fd6113c3565b5b828201905092915050565b600061131482611327565b9050919050565b60008115159050919050565b600073ffffffffffffffffffffffffffffffffffffffff82169050919050565b6000819050919050565b600060ff82169050919050565b60005b8381101561137c578082015181840152602081019050611361565b8381111561138b576000848401525b50505050565b600060028204905060018216806113a957607f821691505b602082108114156113bd576113bc6113f2565b5b50919050565b7f4e487b7100000000000000000000000000000000000000000000000000000000600052601160045260246000fd5b7f4e487b7100000000000000000000000000000000000000000000000000000000600052602260045260246000fd5b6000601f19601f8301169050919050565b7f45524332303a207472616e7366657220746f20746865207a65726f206164647260008201527f6573730000000000000000000000000000000000000000000000000000000000602082015250565b7f45524332303a20617070726f766520746f20746865207a65726f20616464726560008201527f7373000000000000000000000000000000000000000000000000000000000000602082015250565b7f45524332303a207472616e7366657220616d6f756e742065786365656473206260008201527f616c616e63650000000000000000000000000000000000000000000000000000602082015250565b7f45524332303a207472616e7366657220616d6f756e742065786365656473206160008201527f6c6c6f77616e6365000000000000000000000000000000000000000000000000602082015250565b7f45524332303a207472616e736665722066726f6d20746865207a65726f20616460008201527f6472657373000000000000000000000000000000000000000000000000000000602082015250565b7f45524332303a20617070726f76652066726f6d20746865207a65726f2061646460008201527f7265737300000000000000000000000000000000000000000000000000000000602082015250565b7f45524332303a2064656372656173656420616c6c6f77616e63652062656c6f7760008201527f207a65726f000000000000000000000000000000000000000000000000000000602082015250565b7f45524332303a206d696e7420746f20746865207a65726f206164647265737300600082015250565b61168d81611309565b811461169857600080fd5b50565b6116a481611347565b81146116af57600080fd5b5056fea2646970667358221220ef973a3155963536a90c4ec5ce5843e0ee549f545a476b337aa74b6805de519a64736f6c63430008040033",
  "immutableReferences": {},
  "source": "pragma solidity ^0.8.0;\r\n\r\nimport  \"@openzeppelin/contracts/token/ERC20/ERC20.sol\";\r\n\r\n\r\ncontract DigiToken is ERC20 {\r\n\r\naddress public minter; \r\n\r\nevent MinterChanged(address indexed _from, address indexed_from);\r\nevent TokenMinted(address indexed _from, uint256 _amount);\r\n\r\n    constructor() ERC20(\"Digital Token\", \"DGT\") payable {\r\n        minter = msg.sender;\r\n        _mint(msg.sender, 1000000 * (10 ** uint256(decimals())));\r\n    }\r\n\r\n    // function PassMinterRole(address owner, address minter) {\r\n    //     require(msg.sender==owner, 'only the owner can pass minter role');\r\n\r\n    //     minter = digibank.address; \r\n\r\n    //     emit MinterChanged(owner, msg.sender);\r\n    //     return minter;\r\n\r\n    // }\r\n\r\n    function MintTokens() public payable{   \r\n    _mint(msg.sender, msg.value);\r\n\r\n    emit TokenMinted(msg.sender, msg.value);\r\n}\r\n\r\n}\r\n\r\n",
  "sourcePath": "C:\\Users\\12819\\DigitalBank\\contracts\\Token.sol",
  "compiler": {
    "name": "solc",
    "version": "0.8.4+commit.c7e474f2.Emscripten.clang"
  },
  "schemaVersion": "3.4.4",
  "updatedAt": "2022-02-08T18:32:35.828Z",
  "devdoc": {
    "kind": "dev",
    "methods": {
      "allowance(address,address)": {
        "details": "See {IERC20-allowance}."
      },
      "approve(address,uint256)": {
        "details": "See {IERC20-approve}. Requirements: - `spender` cannot be the zero address."
      },
      "balanceOf(address)": {
        "details": "See {IERC20-balanceOf}."
      },
      "decimals()": {
        "details": "Returns the number of decimals used to get its user representation. For example, if `decimals` equals `2`, a balance of `505` tokens should be displayed to a user as `5.05` (`505 / 10 ** 2`). Tokens usually opt for a value of 18, imitating the relationship between Ether and Wei. This is the value {ERC20} uses, unless this function is overridden; NOTE: This information is only used for _display_ purposes: it in no way affects any of the arithmetic of the contract, including {IERC20-balanceOf} and {IERC20-transfer}."
      },
      "decreaseAllowance(address,uint256)": {
        "details": "Atomically decreases the allowance granted to `spender` by the caller. This is an alternative to {approve} that can be used as a mitigation for problems described in {IERC20-approve}. Emits an {Approval} event indicating the updated allowance. Requirements: - `spender` cannot be the zero address. - `spender` must have allowance for the caller of at least `subtractedValue`."
      },
      "increaseAllowance(address,uint256)": {
        "details": "Atomically increases the allowance granted to `spender` by the caller. This is an alternative to {approve} that can be used as a mitigation for problems described in {IERC20-approve}. Emits an {Approval} event indicating the updated allowance. Requirements: - `spender` cannot be the zero address."
      },
      "name()": {
        "details": "Returns the name of the token."
      },
      "symbol()": {
        "details": "Returns the symbol of the token, usually a shorter version of the name."
      },
      "totalSupply()": {
        "details": "See {IERC20-totalSupply}."
      },
      "transfer(address,uint256)": {
        "details": "See {IERC20-transfer}. Requirements: - `recipient` cannot be the zero address. - the caller must have a balance of at least `amount`."
      },
      "transferFrom(address,address,uint256)": {
        "details": "See {IERC20-transferFrom}. Emits an {Approval} event indicating the updated allowance. This is not required by the EIP. See the note at the beginning of {ERC20}. Requirements: - `sender` and `recipient` cannot be the zero address. - `sender` must have a balance of at least `amount`. - the caller must have allowance for ``sender``'s tokens of at least `amount`."
      }
    },
    "version": 1
  },
  "userdoc": {
    "kind": "user",
    "methods": {},
    "version": 1
  }
}