{
  "contractName": "DigiBank",
  "abi": [
    {
      "inputs": [
        {
          "internalType": "contract DigiToken",
          "name": "_digiToken",
          "type": "address"
        }
      ],
      "stateMutability": "nonpayable",
      "type": "constructor"
    },
    {
      "anonymous": false,
      "inputs": [
        {
          "indexed": true,
          "internalType": "address",
          "name": "_from",
          "type": "address"
        },
        {
          "indexed": false,
          "internalType": "uint256",
          "name": "amount",
          "type": "uint256"
        },
        {
          "indexed": false,
          "internalType": "uint256",
          "name": "timeStamp",
          "type": "uint256"
        }
      ],
      "name": "DepositMade",
      "type": "event"
    },
    {
      "anonymous": false,
      "inputs": [
        {
          "indexed": true,
          "internalType": "address",
          "name": "previousOwner",
          "type": "address"
        },
        {
          "indexed": true,
          "internalType": "address",
          "name": "newOwner",
          "type": "address"
        }
      ],
      "name": "OwnershipTransferred",
      "type": "event"
    },
    {
      "anonymous": false,
      "inputs": [
        {
          "indexed": false,
          "internalType": "uint256",
          "name": "newValue",
          "type": "uint256"
        }
      ],
      "name": "ValueChanged",
      "type": "event"
    },
    {
      "anonymous": false,
      "inputs": [
        {
          "indexed": true,
          "internalType": "address",
          "name": "_from",
          "type": "address"
        },
        {
          "indexed": false,
          "internalType": "uint256",
          "name": "interestAmount",
          "type": "uint256"
        },
        {
          "indexed": false,
          "internalType": "uint256",
          "name": "balance",
          "type": "uint256"
        },
        {
          "indexed": false,
          "internalType": "uint256",
          "name": "timeStamp",
          "type": "uint256"
        }
      ],
      "name": "WithdrawlMade",
      "type": "event"
    },
    {
      "inputs": [
        {
          "internalType": "address",
          "name": "",
          "type": "address"
        }
      ],
      "name": "isStaking",
      "outputs": [
        {
          "internalType": "bool",
          "name": "",
          "type": "bool"
        }
      ],
      "stateMutability": "view",
      "type": "function",
      "constant": true
    },
    {
      "inputs": [],
      "name": "owner",
      "outputs": [
        {
          "internalType": "address",
          "name": "",
          "type": "address"
        }
      ],
      "stateMutability": "view",
      "type": "function",
      "constant": true
    },
    {
      "inputs": [],
      "name": "renounceOwnership",
      "outputs": [],
      "stateMutability": "nonpayable",
      "type": "function"
    },
    {
      "inputs": [
        {
          "internalType": "address",
          "name": "",
          "type": "address"
        }
      ],
      "name": "stakingBalance",
      "outputs": [
        {
          "internalType": "uint256",
          "name": "",
          "type": "uint256"
        }
      ],
      "stateMutability": "view",
      "type": "function",
      "constant": true
    },
    {
      "inputs": [
        {
          "internalType": "address",
          "name": "",
          "type": "address"
        }
      ],
      "name": "stakingStart",
      "outputs": [
        {
          "internalType": "uint256",
          "name": "",
          "type": "uint256"
        }
      ],
      "stateMutability": "view",
      "type": "function",
      "constant": true
    },
    {
      "inputs": [
        {
          "internalType": "address",
          "name": "newOwner",
          "type": "address"
        }
      ],
      "name": "transferOwnership",
      "outputs": [],
      "stateMutability": "nonpayable",
      "type": "function"
    },
    {
      "inputs": [
        {
          "internalType": "uint256",
          "name": "newValue",
          "type": "uint256"
        }
      ],
      "name": "store",
      "outputs": [],
      "stateMutability": "nonpayable",
      "type": "function"
    },
    {
      "inputs": [],
      "name": "retrieve",
      "outputs": [
        {
          "internalType": "uint256",
          "name": "",
          "type": "uint256"
        }
      ],
      "stateMutability": "view",
      "type": "function",
      "constant": true
    },
    {
      "inputs": [],
      "name": "Deposit",
      "outputs": [],
      "stateMutability": "payable",
      "type": "function",
      "payable": true
    },
    {
      "inputs": [],
      "name": "Withdraw",
      "outputs": [],
      "stateMutability": "payable",
      "type": "function",
      "payable": true
    }
  ],
  "bytecode": "0x60806040523480156200001157600080fd5b50604051620013e3380380620013e38339818101604052810190620000379190620001e9565b620000576200004b6200009f60201b60201c565b620000a760201b60201c565b80600160006101000a81548173ffffffffffffffffffffffffffffffffffffffff021916908373ffffffffffffffffffffffffffffffffffffffff160217905550506200021b565b600033905090565b60008060009054906101000a900473ffffffffffffffffffffffffffffffffffffffff169050816000806101000a81548173ffffffffffffffffffffffffffffffffffffffff021916908373ffffffffffffffffffffffffffffffffffffffff1602179055508173ffffffffffffffffffffffffffffffffffffffff168173ffffffffffffffffffffffffffffffffffffffff167f8be0079c531659141344cd1fd0a4f28419497f9722a3daafe3b4186f6b6457e060405160405180910390a35050565b600080fd5b600073ffffffffffffffffffffffffffffffffffffffff82169050919050565b60006200019d8262000170565b9050919050565b6000620001b18262000190565b9050919050565b620001c381620001a4565b8114620001cf57600080fd5b50565b600081519050620001e381620001b8565b92915050565b6000602082840312156200020257620002016200016b565b5b60006200021284828501620001d2565b91505092915050565b6111b8806200022b6000396000f3fe6080604052600436106100915760003560e01c8063715018a611610059578063715018a61461016e5780638da5cb5b14610185578063ade6fa27146101b0578063ed21248c146101ed578063f2fde38b146101f757610091565b80632e64cec11461009657806345bc78ab146100c157806357ea89b6146100fe5780636057361d146101085780636f49712b14610131575b600080fd5b3480156100a257600080fd5b506100ab610220565b6040516100b89190610bef565b60405180910390f35b3480156100cd57600080fd5b506100e860048036038101906100e39190610c6d565b61022a565b6040516100f59190610bef565b60405180910390f35b610106610242565b005b34801561011457600080fd5b5061012f600480360381019061012a9190610cc6565b6105fe565b005b34801561013d57600080fd5b5061015860048036038101906101539190610c6d565b6106bb565b6040516101659190610d0e565b60405180910390f35b34801561017a57600080fd5b506101836106db565b005b34801561019157600080fd5b5061019a610763565b6040516101a79190610d38565b60405180910390f35b3480156101bc57600080fd5b506101d760048036038101906101d29190610c6d565b61078c565b6040516101e49190610bef565b60405180910390f35b6101f56107a4565b005b34801561020357600080fd5b5061021e60048036038101906102199190610c6d565b610a13565b005b6000600254905090565b60046020528060005260406000206000915090505481565b60011515600360003373ffffffffffffffffffffffffffffffffffffffff1673ffffffffffffffffffffffffffffffffffffffff16815260200190815260200160002060009054906101000a900460ff161515146102d5576040517f08c379a00000000000000000000000000000000000000000000000000000000081526004016102cc90610dd6565b60405180910390fd5b6000600460003373ffffffffffffffffffffffffffffffffffffffff1673ffffffffffffffffffffffffffffffffffffffff1681526020019081526020016000205490506000429050600081600560003373ffffffffffffffffffffffffffffffffffffffff1673ffffffffffffffffffffffffffffffffffffffff1681526020019081526020016000205461036b9190610e25565b90506000662386f26fc10000600460003373ffffffffffffffffffffffffffffffffffffffff1673ffffffffffffffffffffffffffffffffffffffff168152602001908152602001600020546103c19190610e88565b6301e337316103d09190610eb9565b905060008183866103e19190610eb9565b6103eb9190610eb9565b90503373ffffffffffffffffffffffffffffffffffffffff166108fc869081150290604051600060405180830381858888f19350505050158015610433573d6000803e3d6000fd5b50600160009054906101000a900473ffffffffffffffffffffffffffffffffffffffff1673ffffffffffffffffffffffffffffffffffffffff16637b47457f33836040518363ffffffff1660e01b8152600401610491929190610f13565b600060405180830381600087803b1580156104ab57600080fd5b505af11580156104bf573d6000803e3d6000fd5b505050506000600460003373ffffffffffffffffffffffffffffffffffffffff1673ffffffffffffffffffffffffffffffffffffffff168152602001908152602001600020819055506000600560003373ffffffffffffffffffffffffffffffffffffffff1673ffffffffffffffffffffffffffffffffffffffff168152602001908152602001600020819055506000600360003373ffffffffffffffffffffffffffffffffffffffff1673ffffffffffffffffffffffffffffffffffffffff16815260200190815260200160002060006101000a81548160ff0219169083151502179055503373ffffffffffffffffffffffffffffffffffffffff167fd1cd6ef4e0f8dae12113bbab854c365064c2e6487705db98b01b42abf77685428287426040516105ef93929190610f3c565b60405180910390a25050505050565b610606610b0a565b73ffffffffffffffffffffffffffffffffffffffff16610624610763565b73ffffffffffffffffffffffffffffffffffffffff161461067a576040517f08c379a000000000000000000000000000000000000000000000000000000000815260040161067190610fbf565b60405180910390fd5b806002819055507f93fe6d397c74fdf1402a8b72e47b68512f0510d7b98a4bc4cbdf6ac7108b3c59816040516106b09190610bef565b60405180910390a150565b60036020528060005260406000206000915054906101000a900460ff1681565b6106e3610b0a565b73ffffffffffffffffffffffffffffffffffffffff16610701610763565b73ffffffffffffffffffffffffffffffffffffffff1614610757576040517f08c379a000000000000000000000000000000000000000000000000000000000815260040161074e90610fbf565b60405180910390fd5b6107616000610b12565b565b60008060009054906101000a900473ffffffffffffffffffffffffffffffffffffffff16905090565b60056020528060005260406000206000915090505481565b600115600360003373ffffffffffffffffffffffffffffffffffffffff1673ffffffffffffffffffffffffffffffffffffffff16815260200190815260200160002060006101000a81548160ff021916908315150217905515610a115767016345785d8a000034101561084c576040517f08c379a000000000000000000000000000000000000000000000000000000000815260040161084390611051565b60405180910390fd5b34600460003373ffffffffffffffffffffffffffffffffffffffff1673ffffffffffffffffffffffffffffffffffffffff168152602001908152602001600020546108979190611071565b600460003373ffffffffffffffffffffffffffffffffffffffff1673ffffffffffffffffffffffffffffffffffffffff1681526020019081526020016000208190555042600560003373ffffffffffffffffffffffffffffffffffffffff1673ffffffffffffffffffffffffffffffffffffffff168152602001908152602001600020546109259190611071565b600560003373ffffffffffffffffffffffffffffffffffffffff1673ffffffffffffffffffffffffffffffffffffffff168152602001908152602001600020819055506001600360003373ffffffffffffffffffffffffffffffffffffffff1673ffffffffffffffffffffffffffffffffffffffff16815260200190815260200160002060006101000a81548160ff0219169083151502179055503373ffffffffffffffffffffffffffffffffffffffff167f0b05f0d1cd0819f155b8a61f60baf7767c1ee49d04aeaab701df236140eb93f93442604051610a089291906110c7565b60405180910390a25b565b610a1b610b0a565b73ffffffffffffffffffffffffffffffffffffffff16610a39610763565b73ffffffffffffffffffffffffffffffffffffffff1614610a8f576040517f08c379a0000000000000000000000000000000000000000000000000000000008152600401610a8690610fbf565b60405180910390fd5b600073ffffffffffffffffffffffffffffffffffffffff168173ffffffffffffffffffffffffffffffffffffffff1603610afe576040517f08c379a0000000000000000000000000000000000000000000000000000000008152600401610af590611162565b60405180910390fd5b610b0781610b12565b50565b600033905090565b60008060009054906101000a900473ffffffffffffffffffffffffffffffffffffffff169050816000806101000a81548173ffffffffffffffffffffffffffffffffffffffff021916908373ffffffffffffffffffffffffffffffffffffffff1602179055508173ffffffffffffffffffffffffffffffffffffffff168173ffffffffffffffffffffffffffffffffffffffff167f8be0079c531659141344cd1fd0a4f28419497f9722a3daafe3b4186f6b6457e060405160405180910390a35050565b6000819050919050565b610be981610bd6565b82525050565b6000602082019050610c046000830184610be0565b92915050565b600080fd5b600073ffffffffffffffffffffffffffffffffffffffff82169050919050565b6000610c3a82610c0f565b9050919050565b610c4a81610c2f565b8114610c5557600080fd5b50565b600081359050610c6781610c41565b92915050565b600060208284031215610c8357610c82610c0a565b5b6000610c9184828501610c58565b91505092915050565b610ca381610bd6565b8114610cae57600080fd5b50565b600081359050610cc081610c9a565b92915050565b600060208284031215610cdc57610cdb610c0a565b5b6000610cea84828501610cb1565b91505092915050565b60008115159050919050565b610d0881610cf3565b82525050565b6000602082019050610d236000830184610cff565b92915050565b610d3281610c2f565b82525050565b6000602082019050610d4d6000830184610d29565b92915050565b600082825260208201905092915050565b7f6f6e6c7920746865206f776e6572206f6620746865206163636f756e7420686160008201527f732074686520617574686f7269747920746f2077697468647261770000000000602082015250565b6000610dc0603b83610d53565b9150610dcb82610d64565b604082019050919050565b60006020820190508181036000830152610def81610db3565b9050919050565b7f4e487b7100000000000000000000000000000000000000000000000000000000600052601160045260246000fd5b6000610e3082610bd6565b9150610e3b83610bd6565b925082821015610e4e57610e4d610df6565b5b828203905092915050565b7f4e487b7100000000000000000000000000000000000000000000000000000000600052601260045260246000fd5b6000610e9382610bd6565b9150610e9e83610bd6565b925082610eae57610ead610e59565b5b828204905092915050565b6000610ec482610bd6565b9150610ecf83610bd6565b9250817fffffffffffffffffffffffffffffffffffffffffffffffffffffffffffffffff0483118215151615610f0857610f07610df6565b5b828202905092915050565b6000604082019050610f286000830185610d29565b610f356020830184610be0565b9392505050565b6000606082019050610f516000830186610be0565b610f5e6020830185610be0565b610f6b6040830184610be0565b949350505050565b7f4f776e61626c653a2063616c6c6572206973206e6f7420746865206f776e6572600082015250565b6000610fa9602083610d53565b9150610fb482610f73565b602082019050919050565b60006020820190508181036000830152610fd881610f9c565b9050919050565b7f6465706f73697420616d6f756e74206d757374206265206174206c656173742060008201527f2e31455448000000000000000000000000000000000000000000000000000000602082015250565b600061103b602583610d53565b915061104682610fdf565b604082019050919050565b6000602082019050818103600083015261106a8161102e565b9050919050565b600061107c82610bd6565b915061108783610bd6565b9250827fffffffffffffffffffffffffffffffffffffffffffffffffffffffffffffffff038211156110bc576110bb610df6565b5b828201905092915050565b60006040820190506110dc6000830185610be0565b6110e96020830184610be0565b9392505050565b7f4f776e61626c653a206e6577206f776e657220697320746865207a65726f206160008201527f6464726573730000000000000000000000000000000000000000000000000000602082015250565b600061114c602683610d53565b9150611157826110f0565b604082019050919050565b6000602082019050818103600083015261117b8161113f565b905091905056fea2646970667358221220b016a4b3b29125610084799035226b849cfb33dbc3b980b615869286f1b136e064736f6c634300080e0033",
  "immutableReferences": {},
  "source": "pragma solidity ^0.8.0;\r\n\r\nimport './Governor/Token.sol';\r\nimport \"@openzeppelin/contracts/access/Ownable.sol\";\r\n\r\ncontract DigiBank is Ownable {\r\n\r\nDigiToken private digiToken; // initialize the state variable of the DigiToken  \r\nuint256 private value; \r\n\r\nevent ValueChanged(uint256 newValue);\r\n\r\nfunction store(uint256 newValue) public onlyOwner{\r\n    value = newValue;\r\n    emit ValueChanged(newValue);\r\n} // store function to store the value change after voting ends \r\n\r\nfunction retrieve() public view returns (uint256) {\r\n    return value; \r\n} // retrive function that retrives the value \r\n\r\nmapping (address => bool) public isStaking;\r\nmapping (address => uint) public stakingBalance;\r\nmapping (address => uint) public stakingStart;\r\n\r\nevent DepositMade(address indexed _from, uint256 amount, uint256 timeStamp);\r\nevent WithdrawlMade(address indexed _from, uint256 interestAmount, uint256 balance, uint256 timeStamp);\r\n\r\nconstructor(DigiToken _digiToken) public {\r\n    digiToken = _digiToken;\r\n}\r\n\r\nfunction Deposit() public payable{\r\n    \r\n    if(isStaking[msg.sender]=!true) {\r\n    \r\n        require(msg.value >= .1 * (10 ** 18), 'deposit amount must be at least .1ETH');\r\n\r\n        stakingBalance[msg.sender] = stakingBalance[msg.sender] + msg.value;\r\n        stakingStart[msg.sender] = stakingStart[msg.sender] + block.timestamp;\r\n\r\n        isStaking[msg.sender] = true;\r\n        emit DepositMade(msg.sender, msg.value, block.timestamp);\r\n        }\r\n    }\r\n\r\nfunction Withdraw() public payable{\r\n\r\n\r\n        require(isStaking[msg.sender] == true, 'only the owner of the account has the authority to withdraw');        \r\n\r\n        uint balance = stakingBalance[msg.sender];\r\n        uint currentPeriod = block.timestamp;\r\n        uint stakingPeriod = stakingStart[msg.sender] - currentPeriod;\r\n        uint interestRate = 31668017 * (stakingBalance[msg.sender] / 1e16);\r\n        uint interestAmount = balance * stakingPeriod * interestRate;\r\n\r\n        \r\n        payable(msg.sender).transfer(balance);\r\n        digiToken.MintTokens(msg.sender, interestAmount);\r\n\r\n        stakingBalance[msg.sender] = 0;    \r\n        stakingStart[msg.sender] = 0;\r\n        isStaking[msg.sender] = false;\r\n            \r\n        emit WithdrawlMade(msg.sender, interestAmount, balance, block.timestamp);\r\n        }\r\n    }\r\n\r\n\r\n",
  "sourcePath": "C:\\Users\\12819\\DigitalBank\\contracts\\DigiBank.sol",
  "compiler": {
    "name": "solc",
    "version": "0.8.14+commit.80d49f37.Emscripten.clang"
  },
  "schemaVersion": "3.4.7",
  "updatedAt": "2022-07-18T14:57:36.251Z",
  "networkType": "ethereum",
  "devdoc": {
    "kind": "dev",
    "methods": {
      "owner()": {
        "details": "Returns the address of the current owner."
      },
      "renounceOwnership()": {
        "details": "Leaves the contract without owner. It will not be possible to call `onlyOwner` functions anymore. Can only be called by the current owner. NOTE: Renouncing ownership will leave the contract without an owner, thereby removing any functionality that is only available to the owner."
      },
      "transferOwnership(address)": {
        "details": "Transfers ownership of the contract to a new account (`newOwner`). Can only be called by the current owner."
      }
    },
    "version": 1
  },
  "userdoc": {
    "kind": "user",
    "methods": {},
    "version": 1
  }
}